:020000040800F2
:1000000058140020C10300089D3000089F300008EC
:10001000A3300008A7300008AB3000080000000043
:10002000000000000000000000000000AF300008E9
:10003000B130000800000000B3300008CF300008E5
:10004000DB030008DB030008DB030008DB03000818
:10005000DB030008DB030008DB030008DB03000808
:10006000DB030008DB030008DB030008DB030008F8
:10007000DB030008DB030008DB030008DB030008E8
:10008000DB030008DB030008DB030008DB030008D8
:10009000DB030008DB030008DB030008DB030008C8
:1000A000DB030008DB030008DB030008DB030008B8
:1000B000DB030008DF21000845210008DB030008FE
:1000C000DB030008DB030008DB030008DB03000898
:1000D000DB03000873220008DB030008DB030008D1
:1000E000DB030008DB030008DB03000800F002F874
:1000F00000F067F80AA090E8000C82448344AAF15B
:100100000107DA4501D100F05CF8AFF2090EBAE858
:100110000F0013F0010F18BFFB1A43F0010318473B
:1001200034C7000054C700000A444FF0000C10F818
:10013000013B13F0070408BF10F8014B1D1108BF65
:1001400010F8015B641E05D010F8016B641E01F805
:10015000016BF9D113F0080F1EBF10F8014BAD1C55
:100160000C1B09D16D1E58BF01F801CBFAD505E073
:1001700014F8016B01F8016B6D1EF9D59142D6D3CD
:10018000704700000023002400250026103A28BFF5
:1001900078C1FBD8520728BF30C148BF0B607047F9
:1001A00066290CF03481002070471FB508F006FF67
:1001B0000400002000210AF0CDFEE0601FBD10B554
:1001C00010BD09F017F81146FFF7EFFF02F076FEB9
:1001D00009F035F803B4FFF7F2FF03BC01F01DF896
:1001E0000CB50020019000906C48006840F480300D
:1001F0006A49086000BF6948006800F40030009058
:100200000198401C0190009818B90198B0F5A06FB2
:10021000F1D16248006800F4003010B10120009074
:1002200001E0002000900098012843D15C4800685C
:1002300040F010005A4908600846006820F00300AA
:1002400008600846006840F00200086053484068B3
:10025000524948600846406848600846406840F493
:10026000806048600846406820F47C10486008467A
:10027000406840F4E81048600846006840F080702C
:10028000086000BF4548006800F000700028F9D001
:100290004248406820F003004049486008464068F2
:1002A00040F00200486000BF3C48406800F00C008D
:1002B0000828F9D10CBD10B5FFF792FF10BD10B59D
:1002C0003648006840F0010034490860084640683C
:1002D00034490840314948600846006832490840BE
:1002E0002E4908600846006820F48020086008460F
:1002F000406820F4FE0048604FF41F008860FFF75C
:10030000DAFF4FF000602949086010BD10B50021E8
:1003100000200022214B5B6803F00C0121B104296D
:1003200006D0082928D107E0214B224C236027E082
:100330001F4B204C236023E0184B5B6803F47010C4
:10034000164B5B6803F48032022303EB904022B922
:10035000194B4343174C23600DE0104B5B6803F4CB
:10036000003323B1144B4343124C236003E0104B82
:100370004343104C236003E00D4B0E4C236000BF41
:1003800000BF064B5B68C3F303130C4CE15C094BE5
:100390001B68CB40074C236010BD000000100240DA
:1003A000002002400000FFF8FFFFF6FE08ED00E02D
:1003B00000127A000000002000093D000400002027
:1003C0000948804709480047FEE7FEE7FEE7FEE7E9
:1003D000FEE7FEE7FEE7FEE7FEE7FEE70448054925
:1003E000054A064B70470000BF020008ED000008F8
:1003F000580E0020581400205810002058100020DB
:1004000070B5044602F069FE054600BF02F065FEC5
:10041000401B04EB4401C1EBC411B0EBC10FF5D399
:1004200070BD70B5044602F058FE054600BF02F0EC
:1004300054FE401BA042FAD370BD000010B58448A2
:100440000078C0F3C0020821824805F0A0F9804876
:100450000078C0F3800202217E4805F098F97C48BC
:100460000078C0F340024FF480717B4805F08FF9AB
:100470007748007800F001024FF40061764805F0FB
:1004800086F910BD10B575480078C0F3800028B11A
:1004900000206F490870724908707FE06F4800784B
:1004A000C0F3400020B96D48007800F0010088B129
:1004B0006B480078022803D00F206549087005E0DA
:1004C0006348007880F00F00614908700220644999
:1004D000087063E061480078C0F3401020B95F48BD
:1004E0000078C0F3801088B15D480078092803D0F7
:1004F00003205749087005E05548007880F00F0048
:100500005349087009205649087047E0534800785D
:10051000C0F30010B0B152480078072803D008207B
:100520004B4908700AE04A48007840004849097879
:1005300040EAE10000F00F004549087007204849F3
:1005400008702BE04748407830B9032040490870D4
:1005500004204349087021E043480078C0F380003C
:1005600020B941480078C0F3C00088B13C48007809
:10057000062803D003203649087005E03448007887
:1005800080F003003249087006203549087005E004
:100590000F202F490870012031490870FFF74EFFE6
:1005A00010BD10B500241CE02D480078072803D0AA
:1005B0000820274908700AE02548007840002449AF
:1005C000097840EAE10000F00F0021490870072097
:1005D00023490870FFF732FF6420FFF711FF601C0A
:1005E000C4B2102CE0DB002417E01D48007802287C
:1005F00003D00F201649087005E01548007880F0F8
:100600000F0013490870022015490870FFF716FF04
:10061000C820FFF7F5FE601CC4B2062CE5DB10BD58
:1006200010B50F480078092803D003200849087046
:1006300005E00748007880F00F00054908700920A0
:1006400007490870FFF7FAFEC820FFF7D9FE10BD72
:1006500014000020000C014000080140D0010020DF
:1006600015000020600A0020D2010020F8B50446E1
:100670000D4616466B4601227521D02001F02FF958
:100680006B4601227521D02001F029F99DF8000068
:10069000682801D00020F8BD80226B21D02001F015
:1006A0009DF83220FFF7ACFE00221921D02001F086
:1006B00095F803226B21D02001F090F872223721A7
:1006C000D02001F08BF801223821D02001F086F8EB
:1006D00032461A21D02001F081F822461B21D02079
:1006E00001F07CF82A461C21D02001F077F81CB9D3
:1006F000FD48FE49086014E0012C03D1FC48FB4989
:1007000008600EE0022C03D1FA48F849086008E0BE
:10071000032C03D1F848F549086002E00020F349B2
:1007200008601DB9F548F649086010E0012D03D1B5
:10073000F448F34908600AE0022D03D1F248F04979
:10074000086004E0032D02D1F048ED490860012063
:10075000A1E71CB56B4606223B21D02001F0BFF873
:100760009DF801109DF8002041EA022108B20BF02B
:1007700089FB0446E248016820460BF013FCE4497B
:1007800008609DF803109DF8022041EA022108B29A
:100790000BF078FB0446DA48016820460BF002FCB7
:1007A000DB4948609DF805109DF8042041EA0221CC
:1007B00008B20BF067FB0446D148016820460BF0F5
:1007C000F1FBD34988601CBD1CB56B460622432152
:1007D000D02001F084F89DF801109DF8002041EA36
:1007E000022108B20BF04EFB0446C04801682046C7
:1007F0000BF0D8FBC649C8609DF803109DF8022095
:1008000041EA022108B20BF03DFB0446B7480168FB
:1008100020460BF0C7FBBE4908619DF805109DF806
:10082000042041EA022108B20BF02CFB0446AF4839
:10083000016820460BF0B6FBB54948611CBD2DE9A7
:10084000F04F93B00EAB0E223B21D02001F047F8C1
:100850009DF839109DF8382041EA022108B20BF0CA
:1008600011FB0446A648016820460BF09BFBA849F3
:1008700008609DF83B109DF83A2041EA022108B239
:100880000BF000FB04469E48016820460BF08AFBF3
:100890009F4948609DF83D109DF83C2041EA0221A7
:1008A00008B20BF0EFFA04469548016820460BF0B9
:1008B00079FB974988609DF841109DF8402041EAF6
:1008C000022108B20BF0DEFA04468848016820468F
:1008D0000BF068FB8E49C8609DF843109DF84220DC
:1008E00041EA022108B20BF0CDFA04467F480168C4
:1008F00020460BF057FB864908619DF845109DF88E
:10090000442041EA022108B20BF0BCFA04467748C1
:10091000016820460BF046FB7D49486148690BF0B1
:10092000D5F804460D467A4908690BF0CFF806461B
:100930000F467749C8680BF0C9F880468946744964
:1009400088680BF0C3F882468B46714948680BF003
:10095000BDF8CDE90C016E4908680BF0B7F8CDE998
:1009600002ABCDE90489CDE90667CDE90845CDE9BB
:100970000A01DDE90C01CDE900016648DDE90A2341
:1009800007F0BCFF13B0BDE8F08F08B56B4601223D
:100990003A21D02000F0A3FF9DF8000008BD70B5FB
:1009A000044602F09AFB05460EE020215A4804F066
:1009B000D0FE012803D1FFF742FF012070BD02F0F5
:1009C0008CFB401B00D5002502F087FB401BA0429A
:1009D000EBD30020F2E770B5044602F07EFB05463B
:1009E0000DE0FFF7D2FF00F0010018B1FFF727FF7D
:1009F000012070BD02F071FB401B00D5002502F004
:100A00006CFB401BA042ECD30020F2E72DE9F04F35
:100A100099B0642500200B900C900D9008900990DF
:100A20000A900590069007900290039004900FABF7
:100A300001221B21D02000F052FF2C48D0F800806A
:100A40000EAB01221C21D02000F049FF2C48D0F829
:100A5000009000221B21D02000F0C0FE4FF07E50FD
:100A60002249086002221C21D02000F0B7FE4FF07E
:100A70007E502349086000242AE00120FFF7C0FCD3
:100A8000FFF7DDFE224A11680B980BF04BF80B9034
:100A90001F4A51680C980BF045F80C901C4A91685D
:100AA0000D980BF03FF80D90194AD16808980BF09B
:100AB00039F80890164A116909980BF033F8099033
:100AC000134A51690A980BF02DF80A90601CC4B2C1
:100AD000AC42D2DBE0221B21D02000F07FFEE222DC
:100AE0001C21D0201AE000005BA00B391800002068
:100AF00058A08B3958A00B3A54A08B3A0AE81C3AFC
:100B00001C0000200AE89C3A0AE81C3B0AE89C3BCF
:100B1000380C00200CC80008000C014000F05EFEFC
:100B20001420FFF76DFC00242AE00120FFF768FC89
:100B3000FFF785FE9E4A116805980AF0F3FF0590BD
:100B40009B4A516806980AF0EDFF0690984A916812
:100B500007980AF0E7FF0790954AD16802980AF0D3
:100B6000E1FF0290924A116903980AF0DBFF0390BB
:100B70008F4A516904980AF0D5FF0490601CC4B2F2
:100B8000AC42D2DB002435E028460BF0C3F98246A4
:100B90000BA951F8240051460BF038F80BA941F885
:100BA000240028460BF0B6F9824608A951F8240023
:100BB00051460BF02BF808A941F8240028460BF009
:100BC000A9F9824605A951F8240051460BF01EF8F8
:100BD00005A941F8240028460BF09CF9824602A999
:100BE00051F8240051460BF011F802A941F82400F5
:100BF000601CC4B2032CC7DB18AB04220D21D0202B
:100C000000F06DFE9DF860001C2101EAE0009DF8F7
:100C10006310C1F3011108438DF85C009DF8610079
:100C20001C2101EAE0009DF86310C1F38101084333
:100C30008DF85D009DF862001C2101EAE0009DF83E
:100C4000631001F0030108438DF85E009DF8600019
:100C500000F01F008DF858009DF8610000F01F00A3
:100C60008DF859009DF8620000F01F008DF85A00C1
:100C7000002427E017A9095D481E0BF003F94D4930
:100C800001900AF0C3FF834659464B4809F098FC8F
:100C900082464A490BF086F913A941F8240016A9A7
:100CA000095D481E0BF0EEF883465946444809F0AA
:100CB00087FC824643490BF075F910A941F82400DE
:100CC000601CC4B2032CD5DB3F4911980BF06AF9C4
:100CD00011909DF83C201B21D02000F07FFD3B4867
:100CE000C0F800809DF838201C21D02000F076FD4F
:100CF0003748C0F80090002456E008AA52F82410A3
:100D000002AA52F824000BF00DFB019010A850F835
:100D1000241001980BF006FB83462E490BF042F994
:100D2000824610A850F8241050460AF06FFF06467D
:100D30000BAA52F8241005AA52F824000BF0F2FA7C
:100D4000019013A850F8241001980BF0EBFA834699
:100D500020490BF027F9824613A850F8241050467A
:100D60000AF054FF074627F0004A1B4950460BF093
:100D7000E5F902D24FF0010B01E04FF0000B26F035
:100D8000004A154950460BF0D9F901D2012000E084
:100D900000204BEA000BBBF1000F03D0002019B07C
:100DA000BDE8F08F601CC4B2032CA6DB0120F6E77F
:100DB000380C00200000F0412D2D2D407B14AE4456
:100DC00054E3853F00B04C45000080BF1800002070
:100DD0001C0000200000C842000060412DE9F05FC7
:100DE00004460D4616461F46DDF82880394628463B
:100DF0000AF098FE834631460AF094FE8246414648
:100E00000BF090FA81460AF0F7FF00B220803946D5
:100E100028460AF087FE834631460BF083FA824665
:100E200041460AF07FFE81460AF0E6FF00B260808C
:100E3000394628460BF076FA834631460BF072FAB3
:100E4000824641460BF06EFA81460AF0D5FF00B2A9
:100E5000A080394628460BF065FA834631460AF0F1
:100E600061FE824641460AF05DFE81460AF0C4FFFB
:100E700000B2E080BDE8F09F30B5B0F57A7F02DBCC
:100E800040F2E73404E0002801DA002400E00446E0
:100E90004FF08045AC86B1F57A7F02DB40F2E73453
:100EA00004E0002901DA002400E00C464FF0804500
:100EB0002C87B2F57A7F02DB40F2E73404E0002AA7
:100EC00001DA002400E014464FF08045AC87B3F50A
:100ED0007A7F02DB40F2E73404E0002B01DA0024E1
:100EE00000E01C46014D2C8030BD00004000004059
:100EF00010B5044600BF02210A4806F01CFB00287A
:100F0000F9D02146074806F0C3FA00BF0121054881
:100F100006F011FB0028F9D0024806F0BBFAC0B277
:100F200010BD00000030014010B58B488B4948606F
:100F30008B4848608BA007F0E1FC10BD8748006932
:100F400040F080008549086170478448C16801F01D
:100F5000010008B10120704701F0040008B102202F
:100F6000F9E701F0100008B10320F4E70020F2E7F0
:100F700070B5044600BFFFF7E8FF0546012D00D01D
:100F800006E00120FFF74DFA601E84B2002CF2D17A
:100F900000BF04B9FF25284670BD70B50546002482
:100FA00045F6FF70FFF7E4FF0446C4B96B480069DB
:100FB00040F002006949086108464561006940F057
:100FC0004000086145F6FF70FFF7D2FF0446012C90
:100FD00005D06248006920F002006049086120469F
:100FE00070BD70B505460E46FF20FFF7C1FF0446F1
:100FF00094B95A48006940F00100584908612E80B0
:10100000FF20FFF7B5FF0446012C05D053480069C7
:1010100020F0010051490861204670BD0146088852
:1010200070472DE9F04105460E461746002407E0BB
:1010300036F814102846FFF7D4FFAD1C601C84B2AC
:10104000BC42F5DBBDE8F08130B503460C461546E1
:10105000002207E01846FFF7E1FF24F812009B1C6E
:10106000501C82B2AA42F5DB30BD2DE9F05F80460C
:101070008A461746B8F1006F02D34248804501D333
:10108000BDE8F09FFFF750FFA8F1006B4FEA9B25EA
:10109000CBF34809C9F50074A74200DC3C464DE09B
:1010A0004FF0006101EB85208A143749FFF7CCFF30
:1010B00000260BE009EB0600334931F810004FF62B
:1010C000FF71884200D003E0701C86B2A642F1DBBB
:1010D00000BFA6421BDA4FF0006101EB8520FFF74D
:1010E0005CFF002608E03AF8160006EB0901264AE4
:1010F00022F81100701C86B2A642F4DB4FF00061AA
:1011000001EB85208A142049FFF78BFF04E022467B
:1011100051464046FFF785FFA74200D10FE06D1C06
:101120004FF000090AEB440AA044381B87B2B7F518
:10113000007F02DD4FF4007400E03C46B0E700BFE2
:10114000FFF7FCFE00BF9BE713B50446012201A98F
:101150002046FFF78AFF1CBD23016745002002409F
:10116000AB89EFCD496E6E657220464C41534820E5
:10117000756E6C6F636B20737563636573732E2E6E
:101180002E0D0A0000000108000200200020334953
:101190000880488040F2FF10888031488860002035
:1011A00030490880488040F2FF1088802E488860CF
:1011B0007047028883881A40836899540288521CB9
:1011C0000280704710B5044621462448FFF7F1FF1E
:1011D000012240F22771254805F031FD10BD70B5A0
:1011E00004460D46E0B2FFF7EDFF204670BD014614
:1011F0004A888B881A408B68985C4A88521C4A80BF
:10120000704710B504461748FFF7F1FF10BD10B541
:101210000446E0B2FFF7D6FF10BD00BF704701469D
:1012200008884A88801A8A8810407047018841805F
:10123000704770B504460D4604E014F8011B0748DA
:10124000FFF7B7FF281EA5F10101CDB2F5D10122AC
:1012500040F22771054805F0F2FC70BD0006002041
:10126000180800200C060020180600200038014055
:1012700010B504463C48006820F01F003A49086059
:10128000084600682043086001213748343806F0DA
:10129000FAFC00BF34483438006800F0020000282F
:1012A000F8D031481830006880B210BD2DE9F04107
:1012B00007460C460025002605E03846FFF7D8FF14
:1012C0000544701CC6B2A642F7DBB5FBF4F080B251
:1012D000BDE8F0812DE9F84F14211020FFF7E6FF5B
:1012E00081460AF017FE04460AF0F0FB07464FF06D
:1012F00066321E4B0AF0DAF8054609F041FE00900E
:1013000000980AF0E3FB8046194A1A4B0AF002FAE9
:101310000646194A194B09F021FF04460022184BD2
:1013200009F060FE824609F02BFE009015490098F6
:101330000AF038FE009000980AF05EFDBDE8F88FD4
:1013400010B50A210820FFF7B1FF0F49088008886F
:101350000AF0E0FD04460D490AF024FE0A494860FF
:101360000846406810BD00003424014066665A3FBC
:10137000E17A14AE47E1F63F22FDF675E09C713F3D
:101380000000394000002041D4010020C352D63A69
:1013900038B5002412E0A22000EB4400C1B26B4635
:1013A0000222EE2000F09BFA9DF801009DF800104B
:1013B00040EA0120FB4921F81400641C062CEADBFA
:1013C00038BD10B51E21EE2000F04FFA10BD08B553
:1013D0006B4603220021EE2000F081FA9DF8000008
:1013E00000049DF8011000EB01209DF80210084454
:1013F00008BD70B504460D46FFF7E3FF6420FEF715
:10140000FFFFFFF7C5FF05F15000E7490870092D00
:101410001FD2DFE805F0051E0A1E0F1E141E19005C
:101420004FF47A70E149086018E040F2DC50DF497F
:10143000086013E040F6C410DC4908600EE041F299
:101440008830DA49086009E042F21C50D749086048
:1014500004E042F21C50D549086000BF00BF04F10F
:101460004000D3490870092C1FD2DFE804F0051EA4
:101470000A1E0F1E141E19004FF47A70CD49086021
:1014800018E040F2DC50CB49086013E040F6C4108D
:10149000C84908600EE041F28830C649086009E09A
:1014A00042F21C50C349086004E042F21C50C1499A
:1014B000086000BF00BFC048C049C86070BD2DE9CA
:1014C000F34F89B0B74801890A98A0EB0129B548C4
:1014D000408900214FEAE973A0FB092C01FB09C1F7
:1014E00000FB0310410241EAD25000F5FA66AD4814
:1014F00041880020000440EA11400A04A949C98833
:1015000000234FEAE97AA1FB09CB03FB09B301FBF6
:101510000A334FEADC1141EA4361511840EBE31012
:10152000CDE906109F4801884FF000004FEAC03017
:1015300040EA51404FEAC1329A4989884FF000038E
:101540004FEAE97AA1FB09CB03FB09B301FB0A339C
:101550004FEA1C2141EA0361511840EB2320CDE9F9
:101560000410B6F5FA6F69DA09FB09F0C0170890A4
:10157000F0174FF4FA61711A60F10000A1FB01420B
:1015800000FB012201FB002505210022A4FB010331
:1015900005FB013104FB02115FEA61084FEA3007E5
:1015A0004FF00501A4FB010305FB013104FB02110F
:1015B0004FEA900040EA81704FEAA101CDE90201B3
:1015C0007F48864228DAF01740F2DC52B11840F129
:1015D0000000A1FB014200FB012201FB00250722C4
:1015E0000020A4FB021305FB023204FB0020CF19EC
:1015F00040EB08080B210020A4FB012305FB01316F
:1016000004FB001110464A104FEA3003DDE90210D6
:1016100059184241CDE902120898361ADDE906014F
:10162000C01B61EB0801CDE90601DDE90331059A34
:101630000298081A62EB0302CDE904020998C31765
:10164000DDE90421A0FB02CA03FB02A200FB012189
:101650004FEA5C5040EAC1234815DDE906219A1A99
:1016600060EB0101D00B40EA4140C913CDE9000114
:101670000AF023FC5349086330460AF003FC824613
:1016800051490AF08FFC4F4948630BB0BDE8F08F19
:1016900010B54E480078252819D101F01EFD4C499F
:1016A0000968884247D9FFF792FE4A4908604048D6
:1016B0000178EE2000F0D9F801F00FFD3D490968EE
:1016C00008444349086052204049087033E03F48CD
:1016D0000078522820D101F000FD3D490968884278
:1016E00029D9FFF774FE3C4908603A4801683A4836
:1016F0000068FFF7E4FE2C480178EE2000F0B5F812
:1017000001F0EBFC294909680844314908602520AB
:101710002E490870012010BD23480178EE2000F00A
:10172000A4F801F0DAFC2149096808442849086056
:101730002520264908700020EDE770B500240A2511
:1017400000201E49886004E0FFF7A2FF08B1681E70
:10175000C5B2002DF8D10CE0FFF79AFF48B1194A45
:10176000116B164A90680AF0DDF914498860601C14
:10177000C4B2322CF0DB20460AF0CCFB06460F49FF
:10178000886831460AF042FA0C49886070BD10B58D
:10179000044621464FF07E500AF038FA0749C860E7
:1017A00010BD0000180A0020280000202C00002096
:1017B0002900002030000020089425377C0C0020F0
:1017C00024FAFFFF380C00200AD7233C3400002005
:1017D00040000020380000203C00002070B5044686
:1017E0000E46154600BF4FF40031ED4805F00EFDE2
:1017F0000028F8D10121EA4805F005FC00BFE949BD
:10180000E74805F0E1FC0028F9D000222146E44831
:1018100005F04FFC00BFE449E14805F0D5FC002885
:10182000F9D03146DE4805F03EFC00BFDE49891C98
:10183000DB4805F0C9FC0028F8D02946D84805F057
:1018400032FC00BFD849891CD54805F0BDFC0028F2
:10185000F8D00121D24805F0E2FB00BFD349D048BF
:1018600005F0D4FC0028F9D170BD70B504460D46D2
:1018700000BF4FF40031CA4805F0C8FC0028F8D179
:101880000121C74805F0BFFB00BFC649C44805F0A9
:101890009BFC0028F9D000222146C14805F009FC34
:1018A00000BFC149BE4805F08FFC0028F9D0294689
:1018B000BB4805F0F8FB00BFBB49891CB84805F0E0
:1018C00083FC0028F8D00121B54805F0A8FB00BF33
:1018D000B649B34805F09AFC0028F9D170BD2DE94E
:1018E000F04106460F4615461C4600BF4FF4003136
:1018F000AB4805F08BFC0028F8D10121A84805F081
:1019000082FB00BFA749A64805F05EFC0028F9D07D
:1019100000223146A24805F0CCFB00BFA249A048F6
:1019200005F052FC0028F9D039469D4805F0BBFB74
:1019300000BF9D49891C9A4805F046FC0028F8D054
:101940000121974805F077FB4FF2FF71944805F0AD
:10195000CFFB0121924805F056FB00BF914990480A
:1019600005F032FC0028F9D0012231468C4805F000
:10197000A0FB00BF8D490E39894805F047FC0028BF
:10198000F8D0012D1AD10021854805F054FB72B61C
:101990008348183000880121814805F040FB62B679
:1019A00000BF824930317E4805F030FC0028F8D075
:1019B0007B4805F07AFB04F8010B67E0022D25D186
:1019C000A902774805F094FB72B675481830008874
:1019D0000021734805F02FFB62B600BF73490C3934
:1019E0006F4805F013FC0028F8D072B601216C484E
:1019F00005F015FB6A481030008804F8010B62B648
:101A000067481030008804F8010B3FE06448183044
:101A100000880CE000BF65490C39614805F0F6FB11
:101A20000028F8D05E4805F040FB04F8010B28467A
:101A3000691ECDB20328EDD100BF5C490C3958486E
:101A400005F0E4FB0028F8D00021554805F0F3FA32
:101A500072B6534805F029FB04F8010B01215048E8
:101A600005F0DDFA62B64E4805F01FFB04F8010BE5
:101A700000BF4C493F314A4805F0A6FB0028F8D08A
:101A8000474805F012FB04F8010B002500BF474949
:101A9000434805F0BBFB0028F9D1BDE8F0812DE9F2
:101AA000F04105460F4616461C4600BF4FF4003174
:101AB0003B4805F0ABFB0028F8D10121384805F080
:101AC000A2FA00BF3749364805F07EFB0028F9D05E
:101AD00000222946324805F0ECFA00BF324930486E
:101AE00005F072FB0028F9D039462D4805F0DBFAE5
:101AF0000CE000BF2D490C39294805F087FB002870
:101B0000F8D014F8011B264805F0CDFA301EA6F1D6
:101B10000101CEB2EDD100BF24490C39204805F0B7
:101B200075FB0028F8D001211D4805F078FA00BFA8
:101B30001E491B4805F06AFB0028F9D1BDE8F08179
:101B40002DE9F8430746884614461D46089E6B4615
:101B5000012241463846FFF7C2FE601CFF2101FA10
:101B600000F0C4F107014A19FF211141084300F0B8
:101B7000FF09601B401C06FA00F0C6B29DF8000089
:101B800000EA090000909DF80000304300909DF8A5
:101B9000002041463846FFF721FEBDE8F8830000EB
:101BA00000540040010003008200070010000010F4
:101BB00008B50F20ADF8000003208DF802001820B2
:101BC0008DF803006946F94803F030FD4FF41060CA
:101BD000ADF8000002208DF8020010208DF80300FF
:101BE0006946F24803F022FD4FF4C060ADF80000F2
:101BF00003208DF8020018208DF803006946EB4899
:101C000003F014FD0120ADF8000003208DF8020060
:101C100000208DF803006946E54803F007FD0A201F
:101C2000ADF8000002208DF8020010208DF80300AE
:101C30006946DF4803F0FAFC0121DE4803F0C7FDE6
:101C40000420ADF8000002208DF8020010208DF86D
:101C500003006946D64803F0E9FC2020ADF80000F7
:101C600002208DF8020004208DF803006946D04858
:101C700003F0DCFCC020ADF8000003208DF802006A
:101C80001C208DF803006946C94803F0CFFCE02012
:101C9000ADF8000003208DF8020018208DF8030035
:101CA0006946C24803F0C2FC4FF40040ADF80000A2
:101CB00003208DF8020010208DF803006946BB4810
:101CC00003F0B4FC1020ADF8000003208DF80200F2
:101CD00010208DF803006946B44803F0A7FC1021DA
:101CE000B24803F050FD4FF41061B04803F04DFDD1
:101CF0000E21AF4803F049FD08BD10B5102005F0D6
:101D000065FC022005F04EFC4FF4803003F0FCFD32
:101D100003F039FE4FF4E0114FF4803003F05CFE25
:101D2000012003F065FE00BF392003F010FE0128FA
:101D3000FAD1022003F05FFE00BF03F065FE082821
:101D4000FBD1002003F065FE4FF4806003F06AFED3
:101D5000002003F070FE4FF4004003F087FE48209F
:101D6000954908700121142003F00FFF01219348C9
:101D700003F025FF012145F20D2003F013FF01219F
:101D8000880303F029FF00214FF4804003F024FF73
:101D90000121480203F020FF00214FF4007003F0FE
:101DA0001BFF10BD00B585B0002000908DF8040029
:101DB0008DF805004FF46020029000200390012070
:101DC0008DF8100069467E4805F0F1FE012006F00E
:101DD000ABF8072301220821794805F080FF07238B
:101DE00001221021764805F07AFF0121744805F0A0
:101DF0000AFF734805F029FF00BF714805F02AFF6C
:101E00000028FAD16E4805F02FFF00BF6C4805F09E
:101E100030FF0028FAD105B000BD00B587B04FF003
:101E2000804003F023FF40F2E730ADF81400624831
:101E30000078182190FBF1F0401E80B2ADF8100040
:101E40000020ADF81600ADF8120004A94FF0804054
:101E500003F0E0FF0121880704F038FB684604F036
:101E60000EFB6020ADF800000120ADF8020000205C
:101E7000ADF80600ADF8080069464FF0804004F068
:101E800006F869464FF0804004F043F869464FF089
:101E9000804004F08BF869464FF0804004F0D1F8A0
:101EA0000821C80604F042FC0821C80604F047FCDB
:101EB0000821C80604F050FC0821C80604F055FCAF
:101EC000404803F0D3FE44F61F60ADF814003A48D2
:101ED000007800EBC00101EB00100121C1EB800094
:101EE00080B2ADF810000020ADF81600ADF8120079
:101EF00004A9344803F08EFF0121324804F0ACFD00
:101F0000012211462F4804F0FCFA01212D4804F06B
:101F1000DDFA2D4803F0AAFE40F2E730ADF81400D8
:101F200025480078401E80B2ADF810000020ADF8C2
:101F30001600ADF8120004A9234803F06BFF01213D
:101F4000214804F089FD012211461F4804F0D9FA06
:101F500001211D4804F0BAFA07B000BD00B585B0F4
:101F60000020ADF800004FF48270ADF802000020B0
:101F7000ADF80400ADF80600ADF808004FF40070AD
:101F8000ADF80A001020ADF80C000020ADF80E00EE
:101F90000720ADF8100069460C4805F0A3F90121AF
:101FA0000A4805F044FA05B000BD000000080140F1
:101FB000000C014000023000440000200700200017
:101FC00000240140000400400008004000300140AF
:101FD0001FB5564800900020ADF804004BF6FF7086
:101FE000ADF806001220ADF808004FF48060ADF89F
:101FF0000A000001ADF80C0069464D4804F061FF8D
:1020000001214B4804F0DBFF1FBD1FB504460094BF
:102010000020ADF80400ADF80600ADF808000C2073
:10202000ADF80A000020ADF80C006946414804F004
:102030006EFD012240F225513E4804F000FE0121D0
:102040003C4804F0F0FD1FBD08B54FF4A06003F05C
:102050001FFA1D208DF8000003208DF801000020DC
:102060008DF8020001208DF80300684603F015FA90
:102070001E208DF8000001208DF8010000208DF851
:10208000020001208DF80300684603F006FA2520BF
:102090008DF8000002208DF8010000208DF802006C
:1020A00001208DF80300684603F0F7F908BD70B50C
:1020B000FFF723FE00F0FEFF1F4800684FF47A721E
:1020C000B0FBF2F1B1F1807F00D31DE021F07F4041
:1020D000401E4FF0E022506150170F22002807DA0F
:1020E00013071D0E154B00F00F04241F1D5503E0B0
:1020F00013071C0E124B1C5400BF00204FF0E022AF
:1021000090610720106100BFFFF787FE4FF4E130B8
:10211000FFF77BFFFFF722FFFFF75AFFFFF748FDAE
:10212000FFF740FEFFF790FF70BD0000801A060029
:1021300000540040003801400000002018ED00E08D
:1021400000E400E010B50121624804F088FC00289A
:1021500044D061480088401C80B25F49088005284F
:1021600004DB0020088001205C4908705C4800887E
:10217000401C80B25A4908800A2804DB00200880ED
:1021800001205849087058480088401C80B25649C0
:102190000880142804DB00200880012053490870BF
:1021A00053480088401C80B251490880322804DB23
:1021B0000020088001204F4908704F480088401CCB
:1021C00080B24D490880642804DB0020088001208B
:1021D0004A49087001213F4804F052FC10BD70B517
:1021E0000121474804F03BFC002841D045A006F0FF
:1021F00085FB4549D1F88C0009F068FC044622466D
:102200000B4642A006F07AFB3F49D1F8880009F05E
:102210005DFC044622460B4643A006F06FFB3A499C
:10222000D1F8840009F052FC044622460B4645A032
:1022300006F064FB4AA006F061FB5349086B09F005
:1022400045FC044622460B4650A006F057FB4E497B
:10225000486B09F03BFC044622460B4652A006F0B0
:102260004DFB3FA006F04AFB0121254804F008FC85
:1022700070BD10B540F22771524804F0C5FD90B111
:102280005148FEF7B4FF044621464E4804F038FD9D
:102290004D48FEF7C4FFD8B9002240F227714948E3
:1022A00004F0CDFC14E040F22551464804F0ACFDAA
:1022B00070B140F22551434804F0D0FD414804F08C
:1022C00023FD42490870084601784148FEF771FF36
:1022D00010BD0000000800404E0000204800002013
:1022E0005000002049000020520000204A00002039
:1022F000540000204B000020560000204C0000201D
:10230000000400400D0A0000600A00202059617797
:10231000202D2D2D3E2025352E32662064656772D6
:1023200065650D0A000000002050697463682D2D5A
:102330002D3E2025352E3266206465677265650D59
:102340000A00000020526F6C6C202D2D2D3E2025A0
:10235000352E3266206465677265650D0A000000DF
:102360003D3D3D3D3D3D3D3D3D3D3D3D3D3D3D3D9D
:102370003D3D3D3D3D3D3D3D3D3D3D3D3D3D3D3D8D
:102380003D3D3D3D0D0A0000380C00202050726597
:102390007373757265202D2D2D3E2025352E3266E6
:1023A0002050610D0A0000002054656D7065726157
:1023B000747572652D2D2D3E2025352E326620B088
:1023C000430D0A0000380140000600205C00002098
:1023D0000C06002070B50446002504F01F041021EF
:1023E000FE4803F0D2F92046FEF782FD0020FEF7FA
:1023F0007FFD05461021F94803F0C5F9284670BD58
:1024000070B504460D46164605F01F051021F34829
:1024100003F0BBF92846FEF76BFD04E00020FEF751
:1024200067FD04F8010B301EA6F10101CEB2F5D113
:102430001021EA4803F0A7F970BD70B504460D46B7
:1024400004F01F0444F020041021E44803F09DF937
:102450002046FEF74DFD2846FEF74AFD1021DF48D5
:1024600003F091F970BD2DE9F04104460D46164682
:102470002F4604F01F0444F020041021D74803F035
:1024800084F92046FEF734FD03E017F8010BFEF750
:102490002FFD301EA6F10101CEB2F6D11021CF489A
:1024A00003F071F9BDE8F08170B504461021CB4806
:1024B00003F06BF92046FEF71BFD05461021C748C7
:1024C00003F061F9284670BD2DE9F04705460C463A
:1024D0001646A846C248007808B1002002E0C1486C
:1024E0000078001B00F0FF09BE480078844201DA42
:1024F000204601E0BB48007804461021B74803F0AD
:1025000044F93046FEF7F4FC074603E018F8010BE7
:10251000FEF7EEFC201EA4F10101CCB2F6D102E0E0
:102520000020FEF7E5FCB9F10000A9F1010101F07E
:10253000FF09F5D11021A94803F025F93846BDE877
:10254000F0872DE9F04105460C462F46A448007857
:1025500008B1002002E0A3480078001B00F0FF084B
:10256000A0480078844201DA204601E09D480078C6
:1025700004461021994803F008F96120FEF7B8FCE1
:10258000064604E00020FEF7B3FC07F8010B201E0E
:10259000A4F10101CCB2F5D102E00020FEF7A8FCC5
:1025A000B8F10000A8F1010101F0FF08F5D11021F8
:1025B0008A4803F0E8F83046BDE8F08110B500F035
:1025C0008CFD044688490C7101F037FE10BD1CB526
:1025D0000021009101914FF40041804803F0D5F8AB
:1025E0008248009901609DF8041001717E480079CD
:1025F00008B9FFF7E3FF1CBD10B50020FFF7EAFEA6
:10260000044604F0020038B944F002010020FFF74C
:1026100014FF0520FDF7F4FE10BD10B5E120FFF713
:1026200043FF10BD10B5E220FFF73EFF10BD10B50F
:102630000620FFF7CFFE00F02804202C01D1002057
:1026400010BD082C01D10220FAE70120F8E710B5EF
:102650000520FFF7BFFE10BD70B505460026062019
:10266000FFF7B8FE0446022D01DA284600E00220FA
:10267000054624F0280455205D49086025B944F03A
:1026800020049B20086006E0022D04D144F00804D9
:1026900041205749086021460620FFF7CEFE06205C
:1026A000FFF798FEA04200D10126304670BD70B5FC
:1026B00004460620FFF78EFE00F0F805032C01DA31
:1026C000204600E00320044645EA4400C0B2054627
:1026D00001460620FFF7B1FE70BD70B5044600202C
:1026E000FFF778FE20F00C0534B1012C02D145F043
:1026F000080501E045F00C0529460020FFF79DFE86
:1027000070BD2DE9F05F04460F4615461E46DDF804
:1027100034A0DDE90A98FFF75AFF7F2C01DA204642
:1027200000E07F2001460520FFF787FE012E01DA39
:10273000012004E0202E01DD202000E03046294960
:102740000870B8F1030F01DA032005E0B8F1050FB6
:1027500001DD052000E04046264908700846007863
:10276000801EC1B20320FFF768FEBAF1000F04D04B
:102770003F210120FFF761FE03E000210120FFF768
:102780005CFEB9F1000F14D01D20FFF723FE40F0CE
:10279000040B59461D20FFF750FE1C20FFF71AFEC0
:1027A00040F03F0B59461C20FFF747FE01200C4923
:1027B00008700C98FFF791FF0E9800F00F020F9829
:1027C00062F31F1001460420FFF737FE3846FFF77B
:1027D0006EFF2846FFF740FF70210DE00008014022
:1027E0006100002060000020620000206C000020DA
:1027F00074000020710000200720FFF71EFEFFF785
:1028000026FFA04203D1FFF712FFA84202D000200A
:10281000BDE8F09FFFF706FFFFF7FFFEFFF7ECFEB6
:102820006420FDF7EDFD0020FFF7D4FD20F0010B43
:1028300059460020FFF701FE0120E9E770B5044684
:102840000E46062C11DC0120FFF7C4FD054626B11B
:102850000120A0402843C5B202E00120A0408543EA
:1028600029460120FFF7E9FD00BF70BD10B5172014
:10287000FFF7B0FD00F0010080F0010010BD10B5C1
:10288000FF20FFF711FE10BD10B5FFF7F8FFC0F3F2
:10289000420010BD10B54FF40041F74802F075FF3B
:1028A0000020FFF797FD20F0020421460020FFF7EB
:1028B000C4FD10BD2DE9F04104460D46164600202A
:1028C000FFF788FD40EA051040EA441040EA861010
:1028D000C7B239460020FFF7B0FDBDE8F08110B562
:1028E00000246020FFF7E0FD0446202C06DDFFF702
:1028F00099FE0220FDF784FD002010BD2046FCE774
:1029000070B500250020FFF765FD00F00C040120E4
:10291000FFF760FD064604F0080000B92EB104F090
:10292000040008B1022500E00125284670BD10B55D
:102930000920FFF74FFD00F0010010BD10B54FF466
:102940000041CD4802F021FF10210720FFF775FD5F
:10295000E320FFF7A9FD4FF40041C74802F013FF41
:1029600010BD10B50620FFF735FDC0F3410010BDC6
:1029700010B51D20FFF72EFD40F0060421461D2056
:10298000FFF75BFD1C20FFF725FD40F03F042146CB
:102990001C20FFF752FD0120B849087010BD10B58A
:1029A0001D20FFF717FD40F0010421461D20FFF711
:1029B00044FD10BD10B5FFF762FF044670210720EB
:1029C000FFF73BFD04F02000002801DD012000E0BE
:1029D000002000EB800004F01001002901DD01213E
:1029E00000E0002101EB4101484304F040010029CF
:1029F00001DD012100E0002149004843C0B210BDC3
:102A000010B54FF400419C4802F0BFFE9C4800689E
:102A1000FDF707FD1D20FFF7DDFC00F0020028B1E7
:102A200097480068FDF7FDFCFFF7F7FD9548027831
:102A300095490A20FFF717FD944801781120FFF708
:102A4000FCFC0220FFF7C6FC40F0010421460220F6
:102A5000FFF7F3FC0020FFF7BDFC20F00104214646
:102A60000020FFF7EAFC10BD70B504460220FFF716
:102A7000B1FC0121A14020EA010529460220FFF70F
:102A8000DCFC70BD10B50020FFF7A4FC40F0010491
:102A900021460020FFF7D1FC70210720FFF7CDFC75
:102AA0004FF40041744802F06EFE7948007878498E
:102AB000497808437649897808437549C9780843B5
:102AC000734909790843A0B16E48027870490A2019
:102AD000FFF7C9FC6D4801781120FFF7AEFC02201A
:102AE000FFF778FC40F0010421460220FFF7A5FC27
:102AF00002E00020FFF7B8FF1D20FFF76BFC00F09D
:102B0000020008B1FFF789FD10BD01B55D480278EC
:102B100069465D4805F0ACFF5A48027869461020C6
:102B2000FFF7A1FC08BD10B55648027856491020A1
:102B3000FFF799FC10BD73B504468CB95148027873
:102B400001A90A20FFF78FFC504801781120FFF7F8
:102B500074FC4C48027801A94D4805F0CEFF1FE0F7
:102B6000012C0BD14748027801A90B20FFF77BFC11
:102B7000464801781220FFF760FC11E0012C0FDDC0
:102B8000062C0DDA04F10A01C8B2012201A9FFF7EF
:102B90006AFC04F11101C8B23C490978FFF74DFC09
:102BA0000220FFF717FC0121A1400843C5B22946C6
:102BB0000220FFF742FC7CBD70B504460D46294655
:102BC0002046FFF7BEFC70210720FFF736FC70BDE2
:102BD0002DE9F04105460E4614463746202C01DA11
:102BE000204600E0202004461021234802F0CDFDBD
:102BF00005F0070141F0A800FEF77AF903E017F8A5
:102C0000010BFEF775F9201EA4F10101CCB2F6D13B
:102C10001021194802F0B7FDBDE8F0812DE9F0411F
:102C200006460F4614461D460CB1A02000E0B02019
:102C3000024639463046FFF747FC25B14FF40041C4
:102C40000D4802F0A0FDBDE8F0812DE9F0470546F2
:102C50000E4617461C46DDF8208000F06CFA00EBAB
:102C6000080970210720FFF7E8FB4FF400410248F4
:102C700002F089FD8CB329E00008014061000020CA
:102C8000740000207100002062000020600000201D
:102C90006C000020FFF7F3FD00F0100040B11021A0
:102CA0000720FFF7CAFB4FF40041834802F06BFD99
:102CB00000F041FA484509D94FF400417E4802F03E
:102CC00064FDFFF7AAFC0020BDE8F087FFF7D7FD01
:102CD00000F001000028DDD107E0FFE74FF40041DC
:102CE000754802F052FDFFF798FC01233A46314641
:102CF0002846FFF793FF0120E6E72DE9F047064657
:102D00000F4690461C46DDF8209000F014FA00EBC8
:102D1000090570210720FFF790FB4FF4004166483A
:102D200002F031FD1CB31BE0FFF7A9FD00F010001D
:102D300040B110210720FFF780FB4FF400415E48AF
:102D400002F021FD00F0F7F9A84209D94FF4004143
:102D5000594802F01AFDFFF760FC0020BDE8F0873B
:102D6000FFF78DFD00F001000028DDD106E04FF4F3
:102D70000041514802F009FDFFF74FFC0123424694
:102D800039463046FFF74AFF1AE0FFF778FD00F0BA
:102D9000100040B110210720FFF74FFB4FF4004116
:102DA000454802F0F0FC00F0C6F9A84208D94FF4FB
:102DB0000041414802F0E9FCFFF72FFC0020CDE77D
:102DC0001720FFF707FB00F010000028DDD04FF4BC
:102DD0000041394802F0D9FC70210720FFF72DFB94
:102DE0000120BBE770B504460D4600F0A4F9461972
:102DF0004FF40041304802F0C6FC1CB31AE0FFF764
:102E00003EFD00F0100040B110210720FFF715FB38
:102E10004FF40041284802F0B6FC00F08CF9B042B3
:102E200008D94FF40041244802F0AFFCFFF7F5FB4E
:102E3000002070BD1720FFF7CDFA00F01000002829
:102E4000DDD001E0FFF7E9FB4FF400411A4802F042
:102E50009CFC70210720FFF7F0FA0120E9E72DE93B
:102E6000FF410C4616461F46009D00F064F900EB3A
:102E7000070820E069460120FFF75DFEFFF702FE2C
:102E8000B0B2FDF7BDFAFFF7F1FC28B1FFF7CAFBBE
:102E9000012004B0BDE8F08100F04DF9404501D9B2
:102EA0000020F6E7285DFF2802D10020285502E027
:102EB000285D401C2855DDE70008014086B0FFF77B
:102EC000F6F8FEF763F9FEF72FF801F09FF90F20EF
:102ED00001210223CDE90231CDE9041005200021B2
:102EE00020230222CDE9001003212820FFF709FC4E
:102EF00041F64C530A2204215A48FFF7B0FF022240
:102F000001210320FDF7B2FB08210846FEF771FA04
:102F100005F04EF80A2005F0F3FB00F015F90A233E
:102F20001A4619461846FDF7A7FFFEF706FC4E495C
:102F30008868FEF72CFC93E04C48007868B30020CA
:102F40004A49087000F0C9F849494968401A494996
:102F5000486000F0C2F84649486001F046FF012091
:102F600045490870FEF794FB4448007850B100F0E2
:102F70000AF938B100204149087001204049087021
:102F80004049087005F06AF805F0D4F800F0A5F89B
:102F900037494968401A3C494860FFF767FC38B137
:102FA00020213A48FFF708FE05F075FB02F022FAEF
:102FB00037480078F0B100203549087000F08DF8EE
:102FC0002B49C968401A2B49C86000F086F8284987
:102FD000C86005F0D7FA02F063F900F05FFA05F077
:102FE0008FF805F069F800F078F82149C968401AAF
:102FF0002549C8602748007890B30020254908700B
:1030000000F06BF81A498968401A1A49886000F084
:1030100064F81749886020480088401C80B21E4927
:1030200008801E2803DB0020088002F043F902F02C
:10303000D0F902F0E5F902F0F8F9FDF723FA1048AB
:10304000007820B100200E49087001F0F6F802F077
:10305000F9F800F042F806498968401A0A49886080
:103060006AE70000670000207C0C00204900002077
:10307000240A00204C0A00207A000020840000204E
:103080006C010020600A0020380A0020AC0D0020EE
:103090004A0000204C00002078000020704700BF4C
:1030A000FEE700BFFEE700BFFEE700BFFEE7704798
:1030B0007047704700B585B0684602F006FD1F49AD
:1030C0000098B0FBF1F01E49086005B000BD1D4836
:1030D0000068401C1B490860704700BF1948016820
:1030E0004FF0E0208269174800688142F6D1144809
:1030F000006800EB4003C3EBC010C2EBC000104BF4
:103100001B68B0FBF3F001EB4103C3EBC11300EB11
:10311000C300704730B50446FFF7DFFF054600BF28
:10312000FFF7DBFF401B04EB4401C1EBC411B0EB24
:10313000C10FF5D330BD03480068704740420F000F
:103140007C0000208000002010B5002088494870D5
:10315000012008708749884800F0A4FA854986480C
:1031600000F074FB8349844800F044FC81498248A4
:1031700000F043FD7F49804800F013FE7D497E4802
:1031800000F018FF10BD2DE9F041002600240027B3
:103190000025FFF7D0FF85B278480088281A87B24B
:1031A0007748007898B901207549087000BF0CE095
:1031B0000020744941F82400734941F82400734900
:1031C00008806B494870601CC4B2032CF0DB0A2FE6
:1031D00058DB6E480088B0F5967F24DA002418E0AA
:1031E0006B4A52F82410674A52F8240008F09AFCFF
:1031F000644941F82400664A0C3252F82410624AAD
:1032000052F8240008F08EFC5F4941F82400601C4D
:10321000C4B2032CE4DB5D480088401C5B49088095
:10322000564805802EE000241FE05848008808F02A
:1032300071FE8046534951F82400414608F0E6FCEF
:103240004B49143141F824005048008808F062FED0
:1032500080464D4951F82400414608F0D7FC4449C6
:10326000203141F82400601CC4B2032CDDDB40494E
:10327000C869484909F056F83D49C86100204049ED
:10328000087001263046BDE8F08110B540F2DC50F0
:10329000FDF7A1FB364A51693D4A106809F042F832
:1032A000044600F082FA3249C8620A469169384AF7
:1032B000506809F037F8044600F04BFB2C490863CE
:1032C0000A46D169324A906809F02CF8044600F0A9
:1032D00043FC274948632E49C86800F011FD244982
:1032E00048642B49086900F0DFFD214988642849BA
:1032F000486900F0E2FE1E49C86410BD2DE9F047A0
:103300000025002600240BE040F2DC50FDF763FBB3
:103310001F488168284608F005FC0546601CC4B2B9
:10332000052CF1DB1C49284608F070FC07461048C4
:10333000C169384608F0F6FF06461649304608F0DF
:10334000F1FF20F00049484608F0C0FB0746134A49
:10335000134B08F06FF803D201200549087002E012
:1033600000200349087002480078BDE8F08700009B
:10337000600A00200000F0410000C84288000020E0
:103380008A000020FC0A0020080B00208600002094
:10339000380C00200AE81C410000A0409A99999935
:1033A0009999A93F2DE9F04705460C462846A168A2
:1033B00008F0F8FD8246294608F0F4FD80464FF0FB
:1033C000804108F023FC07462846616808F0EAFDC2
:1033D0008146394608F0A6FB0646216808F0A2FBA4
:1033E00020602846A16808F0DDFD0646616808F007
:1033F00099FB6060BDE8F0872DE9FF4F87B0144668
:103400009946DDF850A05146079808F0CBFD0546D7
:10341000089908F0C7FD069054F82900069908F0AD
:1034200081FB44F82900B9F1000F28D150460699D4
:1034300008F0B8FD0546616808F074FB606051460D
:10344000504608F0AFFD0190069908F0ABFD8346A9
:1034500008F03CFB07460022834B07F07FFECDE9D6
:103460000401A06808F032FBCDE90201DDE9042384
:1034700007F0B8FD054607F083FDA0600BE0B9F149
:10348000010F08D15046069908F08CFD0546A16849
:1034900008F048FBA0600BB0BDE8F08F2DE9FF47B6
:1034A0000020019002900390FFF717FE06466F4838
:1034B000006848B16D490968701A08F02BFD804614
:1034C0006B4908F0A3FB00E0002007466748066050
:1034D0006848407808B9BDE8FF8767480078002849
:1034E00054D0664A1168634AD06A08F01BFF6149EC
:1034F000C862624A51685F4A106B08F013FF5D4969
:1035000008635E4A91685B4A506B08F00BFF5949AB
:103510004863002423E00020594941F82400002595
:1035200019E005EB4503534A503202EB830252F88F
:103530002400504A2C3252F8251008F033FD804602
:103540004F4850F82410404608F0ECFA4C4941F836
:103550002400681CC5B2032DE3DB601CC4B2032C3D
:10356000D9DB4748806880F000404549886088681A
:10357000444908F0D7FA804643488168404608F03D
:10358000D1FE4249886000203B49087040480168EC
:103590004048006808F006FD81463D4801684846FD
:1035A00008F000FD8046039908F02AFE03900024ED
:1035B0002EE04FF00008002513E004EB44032D4AF1
:1035C000503202EB830252F8250001AA52F825106E
:1035D00008F0E8FC8146414608F0A4FA8046681CE1
:1035E000C5B2032DE9DB2C480168404608F0DAFC3F
:1035F0008246394608F0D6FC8146204850F824100F
:10360000484608F08FFA1D4941F82400601CC4B2F6
:10361000032CCEDB1948806880F000401749886091
:1036200019493846FFF7BEFE194800680023164ABC
:103630003946009017480068FFF7DEFE174800681B
:10364000124900900223104A88683946FFF7D4FED9
:103650000D480068124988600B48406848610A4874
:103660008068086200BF36E700000840A80000201C
:1036700000247449600A00207A000020500B0020CA
:10368000980000200AE81C41380B0020440B002061
:103690008C000020A4000020940000209000002056
:1036A000140B00202DE9FE4F06460C46002700258E
:1036B000002002902146304608F0A8FA0746394615
:1036C000FE4808F0A3FA804607F08AFB0546294623
:1036D000284608F067FC8346F94806F0B3FE4FF031
:1036E0008041019008F05EFC8246294608F05AFCB1
:1036F00081464FF07E5108F015FA8046594608F091
:1037000011FA0290EF4804600021006808F016FDED
:1037100049D22946284608F045FC8046029908F01F
:1037200075FAE9490860084601684FF0804008F0E2
:1037300039FCE6490860E4480068E5490860294624
:10374000284608F02FFC82464FF07E5108F0EAFD33
:1037500081464FF0804108F025FC8046029908F030
:1037600055FADC4908602946284608F01BFC019000
:10377000D34806F067FE4FF08041009008F012FC3D
:103780008346294608F00EFC82464FF07E5108F031
:1037900037FD8146019908F0C5F98046029908F085
:1037A00035FACD490860BDE8FE8F2DE9F0470446A3
:1037B000002500260021C348006808F0BFFB02D89E
:1037C0002046BDE8F087C4480168C448006808F096
:1037D000E9FB8046BF480168C148006808F0E2FB89
:1037E0008146214608F00CFD0746414608F09AFD47
:1037F0000546284606F058F918B9284606F04AF951
:1038000000B12546B2480168B448006808F0CAFB18
:103810008046AE480168B248006808F0C3FB8146A4
:10382000A9480168284608F0BDFB8246494608F0D1
:1038300079F90746414608F075F90646A848006838
:10384000A6490860A64805603046BAE72DE9FE4F54
:1038500006460C46002700250020029021463046EF
:1038600008F0D4F907463946944808F0CFF9804665
:1038700007F0B6FA05462946284608F093FB83462A
:103880008F4806F0DFFD4FF08041019008F08AFB81
:103890008246294608F086FB81464FF07E5108F0AB
:1038A00041F98046594608F03DF902908D48046080
:1038B0000021006808F042FC49D22946284608F059
:1038C00071FB8046029908F0A1F987490860084613
:1038D00001684FF0804008F065FB84490860824829
:1038E0000068834908602946284608F05BFB824649
:1038F0004FF07E5108F016FD81464FF0804108F0F0
:1039000051FB8046029908F081F97A4908602946FE
:10391000284608F047FB0190694806F093FD4FF0F8
:103920008041009008F03EFB8346294608F03AFBB0
:1039300082464FF07E5108F063FC8146019908F001
:10394000F1F88046029908F061F96B490860BDE81A
:10395000FE8F2DE9F047044600250026002161482E
:10396000006808F0EBFA02D82046BDE8F08762480C
:1039700001686248006808F015FB80465D480168F0
:103980005F48006808F00EFB8146214608F038FCCD
:103990000746414608F0C6FC0546284606F084F86E
:1039A00018B9284606F076F800B125465048016857
:1039B0005248006808F0F6FA80464C4801685048C2
:1039C000006808F0EFFA814647480168284608F089
:1039D000E9FA8246494608F0A5F80746414608F04C
:1039E000A1F8064646480068444908604448056016
:1039F0003046BAE72DE9FE4F06460C460027002563
:103A0000002002902146304608F000F9074639466A
:103A10002A4808F0FBF8804607F0E2F905462946F7
:103A2000284608F0BFFA8346254806F00BFD4FF004
:103A30008041019008F0B6FA8246294608F0B2FAB1
:103A400081464FF07E5108F06DF88046594608F0E7
:103A500069F802902B4804600021006808F06EFBB2
:103A600078D22946284608F09DFA8046029908F047
:103A7000CDF825490860084601684FF0804008F0FD
:103A800091FA2249086020480068214908602946C7
:103A9000284608F087FA82464FF07E5108F042FC33
:103AA00081464FF0804108F07DFA8046029908F087
:103AB000ADF818490860294628462DE0DA0F49403C
:103AC000DA0F493FAC000020B8000020BC00002005
:103AD000C0000020B0000020B4000020C80000207A
:103AE000C4000020CC000020D8000020DC00002012
:103AF000E0000020D0000020D4000020E8000020DA
:103B0000E4000020EC000020F8000020FC00002071
:103B100000010020F000002008F044FA0190FE4867
:103B200006F090FC4FF08041009008F03BFA83468D
:103B3000294608F037FA82464FF07E5108F060FBC4
:103B40008146019907F0EEFF8046029908F05EF881
:103B5000F2490860BDE8FE8F2DE9F04704460025D4
:103B600000260021EE48006808F0E8F902D8204657
:103B7000BDE8F087E9480168EA48006808F012FAF1
:103B80008046E9480168E948006808F00BFA814678
:103B9000214608F035FB0746414608F0C3FB0546C1
:103BA000284605F081FF18B9284605F073FF00B1DB
:103BB0002546DF480168DB48006808F0F3F98046D5
:103BC000DC480168D948006808F0ECF98146DA4819
:103BD0000168284608F0E6F98246494607F0A2FF48
:103BE0000746414607F09EFF0646D0480068CD498B
:103BF0000860CE4805603046BAE72DE9FE4F06461C
:103C00000C4600270025002002902146304607F090
:103C1000FDFF07463946C94807F0F8FF804607F020
:103C2000DFF805462946284608F0BCF98346BA481D
:103C300006F008FC4FF08041019008F0B3F982468D
:103C4000294608F0AFF981464FF07E5107F06AFF30
:103C50008046594607F066FF0290B948046000218B
:103C6000006808F06BFA49D22946284608F09AF90C
:103C70008046029907F0CAFFB24908600846016809
:103C80004FF0804008F08EF9AF490860AD480068F9
:103C9000AE4908602946284608F084F982464FF06C
:103CA0007E5108F03FFB81464FF0804108F07AF9E1
:103CB0008046029907F0AAFFA549086029462846D0
:103CC00008F070F90190944806F0BCFB4FF0804179
:103CD000009008F067F98346294608F063F98246A8
:103CE0004FF07E5108F08CFA8146019907F01AFFD7
:103CF0008046029907F08AFF96490860BDE8FE8F6A
:103D00002DE9F04704460025002600218C48006874
:103D100008F014F902D82046BDE8F0878D48016804
:103D20008D48006808F03EF98046894801688B4854
:103D3000006808F037F98146214608F061FA074625
:103D4000414608F0EFFA0546284605F0ADFE18B9E1
:103D5000284605F09FFE00B125467C4801687E4854
:103D6000006808F01FF98046774801687B480068C2
:103D700008F018F9814673480168284608F012F9DE
:103D80008246494607F0CEFE0746414607F0CAFE86
:103D90000646724800687049086070480560304601
:103DA000BAE72DE9FE4F06460C4600270025002005
:103DB00002902146304607F029FF074639465F4802
:103DC00007F024FF804607F00BF8054629462846F1
:103DD00008F0E8F88346504806F034FB4FF0804185
:103DE000019008F0DFF88246294608F0DBF88146AA
:103DF0004FF07E5107F096FE8046594607F092FE3E
:103E00000290574804600021006808F097F949D2F1
:103E10002946284608F0C6F88046029907F0F6FEC3
:103E200050490860084601684FF0804008F0BAF831
:103E30004D4908604B4800684C49086029462846AF
:103E400008F0B0F882464FF07E5108F06BFA8146D8
:103E50004FF0804108F0A6F88046029907F0D6FEA0
:103E6000434908602946284608F09CF801902A48F2
:103E700006F0E8FA4FF08041009008F093F883468E
:103E8000294608F08FF882464FF07E5108F0B8F9C5
:103E90008146019907F046FE8046029907F0B6FE7A
:103EA00034490860BDE8FE8F2DE9F047044600253F
:103EB000002600212A48006808F040F802D8204671
:103EC000BDE8F0872B4801682B48006808F06AF8C5
:103ED0008046274801682948006808F063F8814651
:103EE000214608F08DF90746414608F01BFA0546C1
:103EF000284605F0D9FD18B9284605F0CBFD00B1DC
:103F000025461A4801681C48006808F04BF88046AE
:103F100015480168194833E0DA0F493FF4000020E2
:103F2000EC00002008010020F00000200401002027
:103F300000010020FC000020F8000020DA0F4940BA
:103F40000C010020180100201C010020200100208D
:103F5000100100201401002028010020240100206D
:103F60002C010020380100203C01002040010020ED
:103F700030010020340100204801002044010020CD
:103F8000006808F00FF8814674480168284608F078
:103F900009F88246494607F0C5FD0746414607F045
:103FA000C1FD06466E4800686E4908606C480560B1
:103FB000304685E72DE9FE4F06460C4600270025D2
:103FC000002002902146304607F020FE0746394681
:103FD000654807F01BFE804606F002FF05462946AD
:103FE000284607F0DFFF8346604806F02BFA4FF0C3
:103FF0008041019007F0D6FF8246294607F0D2FFA4
:1040000081464FF07E5107F08DFD8046594607F0FE
:1040100089FD0290564804600021006808F08EF87F
:1040200049D22946284607F0BDFF8046029907F08D
:10403000EDFD50490860084601684FF0804007F0E8
:10404000B1FF4D4908604B4800684C49086029465B
:10405000284607F0A7FF82464FF07E5108F062F92C
:1040600081464FF0804107F09DFF8046029907F09E
:10407000CDFD434908602946284607F093FF01908B
:104080003A4806F0DFF94FF08041009007F08AFFD0
:104090008346294607F086FF82464FF07E5108F09E
:1040A000AFF88146019907F03DFD8046029907F07F
:1040B000ADFD34490860BDE8FE8F2DE9F0470446A8
:1040C0000025002600212A48006807F037FF02D8A3
:1040D0002046BDE8F0872B4801682B48006807F0B0
:1040E00061FF8046264801682848006807F05AFFAB
:1040F0008146214608F084F80746414608F012F947
:104100000546284605F0D0FC18B9284605F0C2FC43
:1041100000B12546194801681B48006807F042FFB6
:104120008046154801681948006807F03BFF814642
:1041300010480168284607F035FF8246494607F0D7
:10414000F1FC0746414607F0EDFC06460F480068C3
:104150000D4908600D4805603046BAE73801002077
:104160004401002048010020DA0F4940DA0F493F9E
:104170004C010020580100205C010020600100205B
:10418000500100205401002068010020640100203B
:1041900010B502222C492D48FCF756FF2A49086821
:1041A00007F02AFE00B2012800D110BD0020FCE774
:1041B00010B5022224492548FCF757FF10BD10B561
:1041C0002824620020492148FCF73EFF10BD10B5AD
:1041D000282462001C491D48FCF747FF10BD002041
:1041E00000BF01E0411CC8B20328FBDB002001E056
:1041F000411CC8B20528FBDB7047002000BF01E06E
:10420000411CC8B20328FBDB7047704710B5FFF7AD
:10421000BFFF20B1FFF7D3FFFFF7E1FF0CE00CA0D9
:1042200004F06CFBFFF7F1FFFFF7E7FF4FF07E5064
:1042300005490860FFF7CBFF10BD10B5FFF7DDFFA4
:10424000FFF7C5FF10BD00005C0B002000FC00085C
:104250006C6F616420706172616D732066726F6D46
:1042600020656570726F6D206661696C65642C7382
:1042700065742064656661756C742076616C756523
:104280000D0A00002DE9FF4104464FF07F500090D9
:104290004FF07C51204607F085FE02900194019872
:1042A0000390FE490398A1EB6000039003980190EE
:1042B000DDE9011007F076FE0746019907F072FE6E
:1042C0000646009907F09CFF0546019907F06AFE33
:1042D0000190019804B0BDE8F0812DE9FF4F8DB049
:1042E0000D4614461E4684F0004B584607F0EEFB80
:1042F00085F0004BCDE90001584607F0E7FB074683
:10430000DDE9002305F0B0FECDE9020106F038FE3C
:104310000C9084F0004B584607F0D8FBCDE9020121
:104320000D9807F0D3FBCDE90001DDE9022305F08C
:104330009BFE074606F024FE0B900C9806F082F8D0
:1043400081460C9806F04CFC82460B9806F07AF8F1
:104350000A900B9806F044FC099049461B9807F018
:1043600021FE8346099907F01DFE074651461A981B
:1043700007F018FE0290099907F014FE83463046B4
:104380000A9907F00FFE5946039007F0CBFB8046D1
:10439000394607F0C7FB089051461B9807F002FE0C
:1043A000074649461A9807F0FDFD8046394607F052
:1043B000B9FF0790079880F000473846089905F044
:1043C00013FF06904FF07C510C9807F0EBFD074669
:1043D00006F038F881464FF07C510C9807F0E2FD6A
:1043E000074606F0FDFB82464FF07C510B9807F024
:1043F000D9FD074606F026F80A904FF07C510B983D
:1044000007F0D0FD074606F0EBFB09904FF07C511A
:10441000069807F0C7FD074606F014F805904FF020
:104420007C51069807F0BEFD074606F0D9FB0490C4
:104430005046099907F0B6FD8346049907F0B2FD8E
:10444000074648460A9907F0ADFD8346059907F0EF
:10445000A9FD8046394607F065FB9149086048464A
:10446000099907F09FFD8346049907F09BFD0746D5
:1044700050460A9907F096FD8346059907F092FD8C
:104480008046394607F04EFF8649086050460A9933
:1044900007F088FD8346049907F084FD07464846E7
:1044A000099907F07FFD8346059907F07BFD80465B
:1044B000394607F037FB7C4908605046099907F0F8
:1044C00071FD8346059907F06DFD074648460A9938
:1044D00007F068FD8346049907F064FD804639467D
:1044E00007F020FF714908606D480168006807F017
:1044F00059FD6F4908606B4801686948006807F01A
:1045000051FD6C490860684801686548006807F01B
:1045100049FD69490860654801686148006807F01D
:1045200041FD664908605F480168006807F03AFD90
:10453000634908605C4801685A48006807F032FD2A
:1045400060490860594801685648006807F02AFD2C
:104550005D49086054480168006807F023FD5B4925
:104560000860524801685048006807F01BFD584930
:1045700008604E480168006807F014FD554908605E
:1045800011B0BDE8F08F0FB595B0002012901190DA
:1045900010905148007858B9DDE91D01CDE90001BE
:1045A0001AA90EC91898FFF798FE01204A49087009
:1045B00000211C9807F0ECFB09D100211D9807F0A1
:1045C000E7FB04D100211E9807F0E2FB64D01E999E
:1045D000084607F0E7FC06901D99084607F0E2FC44
:1045E00004901C99084607F0DDFC0390049907F03D
:1045F00099FA0590069907F095FA0790FFF742FEA1
:10460000139013991C9807F0CDFC1C9013991D98DA
:1046100007F0C8FC1D9013991E9807F0C3FC1E906C
:10462000254801682848006807F07CFA04901E9924
:1046300007F0B8FC0690214801682248006807F09E
:1046400071FE02901D9907F0ADFC04901F480168AF
:104650004FF07C5007F066FE01901E4801680198FB
:1046600007F060FE02901C9907F09CFC03900499EF
:1046700007F058FA0590069907F054FA4FF0804178
:10468000079007F08FFC0F900A48016810480068F7
:1046900007F048FE049021E03AE10000865A375FB7
:1046A0007001002074010020780100207C010020AE
:1046B0009001002094010020980100209C0100201E
:1046C000A0010020A4010020A8010020AC010020CE
:1046D000B0010020B4010020B80100201E9907F0AD
:1046E00061FC0690FE4801684FF07C5007F01AFE0E
:1046F0000190FC480168019807F014FE02901D9992
:1047000007F050FC0490F8480168F848006807F08A
:1047100009FA02901C9907F045FC0390049907F0F0
:1047200001FA0590069907F0FDF94FF080410790D6
:1047300007F038FC0E90EA4801684FF07C5007F013
:10474000F1FD0390EA480168039807F0EBFD05903E
:104750004FF080401E9907F025FC0490059907F062
:1047600021FC0790E3480168E348006807F0DAF9A4
:1047700003904FF080401D9907F014FC02900399BC
:1047800007F010FC0590DD480168DD48006807F07F
:10479000C9FD03904FF080401C9907F003FC029084
:1047A000039907F0FFFB0490059907F0BBF9069009
:1047B000079907F0B7F90D900E99084607F0F2FB3C
:1047C00002900F99084607F0EDFB0190029907F05F
:1047D000A9F9039007F07AF9CDE9040106F0C4FACB
:1047E000CDE9060106F0CCFB0C900D980B90C34868
:1047F0000168C348006807F095FD05900B9907F024
:10480000D1FB0790BA4801684FF07C5007F08AFD51
:104810000490B4480168049807F084FD05900C9951
:1048200007F0C0FB0690079907F07CF90A90B248A0
:104830000168B048006807F075F905900B9907F01A
:10484000B1FB0790A8480168A848006807F06AFD16
:1048500005900C9907F0A6FB0690079907F062F9FE
:1048600009909F4801684FF07C5007F05BFD049071
:104870009F480168049807F055FD05900B9907F0D3
:1048800091FB07909E4801689C48006807F04AF930
:1048900005900C9907F086FB0690079907F042F9FE
:1048A000089009991E9807F07DFB069008991D98BD
:1048B00007F078FB0590069907F034FD07901299F0
:1048C00007F030F9129008991C9807F06BFB0690DE
:1048D0000A991E9807F066FB0590069907F022FDDD
:1048E0000790119907F01EF911900A991D9807F089
:1048F00059FB069009991C9807F054FB05900699FE
:1049000007F010FD0790109907F00CF9109000BF08
:104910000021189807F03CFA09D100211A9807F0F5
:1049200037FA04D100211B9807F032FA7AD01B998C
:10493000084607F037FB0B901A99084607F032FB40
:1049400009901899084607F02DFB0890099907F07F
:10495000E9F80A900B9907F0E5F80C90FFF792FC44
:1049600013901399189807F01DFB189013991A9833
:1049700007F018FB1A9013991B9807F013FB1B9074
:104980005E4801685E48006807F0CCFC0F905A480A
:1049900001685848006807F0C5F80E904FF07C5148
:1049A0005848006807F0BEFC0C904E4801680C980F
:1049B00007F0B8F80D900E991B9807F0F3FA0B90DA
:1049C0000D991A9807F0EEFA0A900B9907F0AAFCD5
:1049D0000C90129907F0A6F812900D99189807F00C
:1049E000E1FA0B900F991B9807F0DCFA0A900B99EB
:1049F00007F098FC0C90119907F094F811900F991A
:104A00001A9807F0CFFA0B900E99189807F0CAFA87
:104A10000A900B9907F086FC0C90109907F082F829
:104A2000109000BF0021129807F0B2F96ED000215B
:104A3000119807F0ADF9F9D00021109807F0A8F906
:104A4000F4D00021209807F079FB66D212992098C3
:104A500007F0A8FA0E90219907F0A4FA0F902A48BF
:104A6000006801460E900F9807F05CF82649086030
:104A70001199209807F096FA0E90219907F092FA72
:104A80000F902148406801460E900F9807F04AF8B1
:104A90001D4948601099209807F084FA0E902199DA
:104AA00007F080FA0F901848806801460E900F9822
:104AB00007F038F8144988600846006801460F90EE
:104AC000159807F02FF815900F48406801460F9091
:104AD000169807F027F816900B488068014616E0F4
:104AE000A0010020B40100209C010020A4010020AE
:104AF000AC01002094010020B001002098010020AA
:104B0000A801002090010020FC0B002025E00F9060
:104B1000179807F007F8179004E00020FA4908609A
:104B20004860886012991F9807F03CFA0F90159919
:104B300006F0F8FF159011991F9807F033FA0F90BF
:104B4000169906F0EFFF169010991F9807F02AFAB1
:104B50000F90179906F0E6FF1790EC481799006838
:104B600007F020FA0E90EA481699006807F01AFA42
:104B70000C90E848006880F000400A90159907F012
:104B800011FA0B900C9907F0CDFB0D900E9907F0E0
:104B9000C9FB4FF07C510F9007F004FADE49086022
:104BA000DA481699006807F0FDF90E90D848179971
:104BB000006807F0F7F90C90D8480168159807F0DD
:104BC000F1F90B900C9906F0ADFF0D900E9907F0DE
:104BD000A9FB4FF07C510F9007F0E4F9D049086031
:104BE000CA480168159807F0DDF90E90C948179971
:104BF000006807F0D7F90C90C8481699006807F0CC
:104C0000D1F90B900C9907F08DFB0D900E9906F0E1
:104C100089FF4FF07C510F9007F0C4F9C14908603B
:104C2000BB480168159807F0BDF90E90B948169970
:104C3000006807F0B7F90C90B8481799006807F0BA
:104C4000B1F90B900C9906F06DFF0D900E9907F0DD
:104C500069FB4FF07C510F9007F0A4F9B24908604E
:104C6000AD480168219807F09DF90F90AB480168A5
:104C70000F9806F057FFA9490860A94801682198D4
:104C800007F090F90F90A34801680F9806F04AFFCB
:104C9000A0490860A3480168219807F083F90F90A4
:104CA0009B4801680F9806F03DFF994908609E48AF
:104CB0000168219807F076F90F90944801680F98E1
:104CC00006F030FF9149086008460168006807F067
:104CD00069F90E908E480168006807F063F90C903E
:104CE0008C480168006807F05DF90A908B480168FC
:104CF000006807F057F909900A9906F013FF0B9026
:104D00000C9906F00FFF0D900E9906F00BFF0F9017
:104D1000FFF7B8FA139081481399006807F042F939
:104D20007E4908607B481399006807F03BF9794990
:104D3000086077481399006807F034F974490860EF
:104D400072481399006807F02DF97049086073489C
:104D50000168006807F026F9744908606D48016829
:104D60006E48006807F01EF97149086068480168DC
:104D70006A48006807F016F96E49086063480168E0
:104D80006648006807F00EF96B49086061480168E1
:104D9000006807F007F9694908605D4801685D48E7
:104DA000006807F0FFF866490860584801685948EC
:104DB000006807F0F7F86349086055480168006823
:104DC00007F0F0F8604908605048016850480068F2
:104DD00007F0E8F85D4908604C480168006807F092
:104DE000E1F85B49086019B000BD2DE9F0439DB0C2
:104DF000584E00201A901B901C902422564911A84E
:104E000003F07BFE00200E900F9010900B900C9002
:104E10000D90089009900A90FEF75FF905464F48FB
:104E2000006848B14D490968681A07F073F80746E9
:104E30004B4906F0EBFE00E00020064647480560BF
:104E4000FEF723FA4748407800285BD146480068BF
:104E500008B945480560454AD168454A106806F0DA
:104E600061FE43490860414A1169414A506806F0B1
:104E700059FE3F4948603D4A51693D4A906806F0F5
:104E800051FE3B4988603B480088401C39490880F6
:104E90003548006838490844854230D9354800888B
:104EA00007F038F8074632490868394606F0AEFE82
:104EB0002C4908622F48008807F02CF807462C4937
:104EC0004868394606F0A2FE26494862294800880B
:104ED00007F020F8074626498868394606F096FE0E
:104EE00020498862002023490880214908604860E1
:104EF000886001201B49487000201B4908601DB0D4
:104F0000BDE8F0833AE00000FC0B00207C010020AB
:104F10007801002074010020800100207001002031
:104F200084010020880100208C01002090010020D5
:104F300094010020980100209C010020A001002085
:104F4000A4010020A8010020AC010020B001002035
:104F5000B40100200AD7233C50C50008BC01002042
:104F600000247449600A0020C0010020380C002091
:104F7000080C0020C4010020C0C62D00A54A116AFB
:104F8000506C07F0CFF90B90A24A516A906C07F071
:104F9000C9F90C909F4A916AD06C07F0C3F90D9043
:104FA0009C48C06A80F000400E909A48006B80F0E8
:104FB00000400F909748406B80F000401090109890
:104FC00080F000470F9880F000480E9880F000496C
:104FD00091494FF07E520A98CDE90616CDE90402B8
:104FE000DDE90810CDE90087CDE902104B460BA89A
:104FF00007C8FFF7C8FA894801688948006806F0C1
:1050000091FD804687480168404607F08BF90746C6
:1050100085480168384607F085F911908348016892
:105020008348006806F0BEFF8046824801688248D7
:10503000006806F0B7FF8146414606F073FD07465B
:105040004FF0804106F0AEFF12907A480168784830
:10505000006806F0A7FF804674480168764800683B
:1050600006F0A0FF8146414607F05CF907464FF085
:10507000804106F097FF13906C4801686C48006807
:1050800006F090FF80466B4801686B48006806F0A8
:1050900089FF8146414607F045F907464FF08041B8
:1050A00006F080FF14905D4801685D48006807F0D5
:1050B00039F980465B480168404606F033FD0746F3
:1050C00059480168384607F02DF915905A4801688B
:1050D0005748006806F066FF804654480168554806
:1050E000006806F05FFF8146414606F01BFD07465B
:1050F0004FF0804106F056FF16904E4801684C482C
:10510000006806F04FFF8046484801684A4800683A
:1051100006F048FF8146414606F004FD07464FF081
:10512000804106F03FFF17904348016840480068FF
:1051300006F038FF80463D4801683E48006806F0AA
:1051400031FF8146414607F0EDF807464FF08041B8
:1051500006F028FF1890314801683148006807F0D0
:10516000E1F880462F480168404607F0DBF8074623
:105170002D480168384606F0D5FC19901999169803
:1051800005F032F81A90139804F0CCFD80F000403E
:105190001B90DDE9111005F027F81C90002408E0B1
:1051A00011A850F824101B48503040F82410601CFF
:1051B000C4B2092CF4DB17491A98C1F890001B9867
:1051C000C1F894001C98C1F898001C491A9806F080
:1051D000E9FE07461A4906F019FD0E49C1F8840098
:1051E00016491B9806F0DEFE0746154906F00EFD2F
:1051F0000849C1F8880011491C9806F0D3FE0746FB
:105200000F4906F003FD0349C1F88C0000BF1DB033
:10521000BDE8F083600A0020CDCC4C3DA001002009
:1052200090010020AC010020B40100207C0100208E
:105230007001002078010020740100200000344338
:10524000DA0F494070B500261649D1F8880006F0FB
:105250003DFC21F0004104460022134B06F024FAE5
:105260000CD31049D1F8840006F030FC21F0004145
:10527000044600220C4B06F017FA0BD200231A4604
:1052800019461846FBF7F8FD0848007820F00100A1
:1052900006490870FDF74FFF0549086070BD70476B
:1052A00070470000600A002000005440D201002036
:1052B000C801002070B5FCF743F86748007800F09B
:1052C000010000283FD06549486806F0FFFB04460E
:1052D0004FF06632624B06F0ADF810D861480078A6
:1052E000401C6049087008460078052870DD5E485B
:1052F000007820F00100401C5B49087068E05749C5
:10530000486806F0E3FB0446584A594B06F092F809
:105310000AD85548007820F00200801C52490870D5
:1053200000205049087053E04F48007820F00100F9
:105330004D4908700846007820F0020008700020EF
:105340004849087044E04549486806F0BFFB0446F8
:105350004FF03332474B06F06DF817D23F4948689B
:1053600006F0B4FB04460022434B06F09DF90DD233
:105370003D48007820F00100401C3B490870084679
:10538000007820F00200801C087021E03349486852
:1053900006F09CFB04460022374B06F04BF807D280
:1053A0003148007820F00400001D2F4908700FE0FC
:1053B0002D48007820F001002B490870084600783D
:1053C00020F0020008700846007820F00400087001
:1053D00070BD10B5FDF7AFFE28490968401AB0F559
:1053E000FA6F06D92048007820F0100010301E49CE
:1053F000087010BD10B5FDF79EFE2049086010BD75
:1054000010B51F4908681F4906F098FE05D31C49CE
:1054100048681C4906F092FE06D21348407820F0F6
:105420000100401C1049487010BD10B516490868AD
:10543000164906F083FE07D20B48407820F00200A0
:10544000801C0949487005E00748407820F00200B8
:105450000549487010BD0000D2010020D401002091
:1054600066660A40E0010020D00100208FC2F528C6
:105470005C8F0A4033330D400000F03FDC01002018
:10548000700C00206666863F7C0C002000006040A7
:1054900031490143314A1160704770B50021002342
:1054A0000F22C47804B32D4C246804F4E064C4F5DE
:1054B000E064210AC1F10403CA40447804FA03F10C
:1054C0008478144021430901254C0678A1550478BD
:1054D00004F01F050124AC4005786D11AD0005F105
:1054E000E025C5F8004109E0047804F01F05012417
:1054F000AC401C4D0678761145F8264070BD1A4A1E
:105500000A400243154B1B1F1A60704739B1134AFA
:10551000121D12680243114B1B1D1A6006E00F4A50
:10552000121D126882430D4B1B1D1A607047042820
:1055300008D14FF0E021096941F004014FF0E02269
:10554000116107E04FF0E021096921F004014FF0FB
:10555000E0221161704700000000FA050CED00E048
:1055600000E400E080E100E080FFFF1F10B504468A
:10557000CC48844208D10121042000F02DFB0021F9
:10558000042000F029FB46E0C748844208D10121ED
:10559000082000F021FB0021082000F01DFB3AE06C
:1055A000C248844208D10121102000F015FB0021DF
:1055B000102000F011FB2EE0BD48844208D10121EB
:1055C000202000F009FB0021202000F005FB22E054
:1055D000B848844208D10121402000F0FDFA0021A2
:1055E000402000F0F9FA16E0B348844208D10121C6
:1055F000802000F0F1FA0021802000F0EDFA0AE0AE
:10560000AE48844207D10121801500F0E5FA00215F
:10561000A01500F0E1FA10BD10B50121084600F018
:10562000DBFA0021012000F0D7FA10BD2DE9F0418E
:10563000024600250026002000230024002791F8C0
:1056400003C00CF00F0591F803C00CF0100CBCF176
:10565000000F03D091F802C04CEA050591F800C094
:10566000BCF1000F31D0146800202BE04FF0010C8A
:105670000CFA00F3B1F800C00CEA03069E4220D1F8
:1056800083004FF00F0C0CFA03F7BC4305FA03FC40
:105690004CEA040491F803C0BCF1280F06D14FF086
:1056A000010C0CFA00FCC2F814C00AE091F803C027
:1056B000BCF1480F05D14FF0010C0CFA00FCC2F808
:1056C00010C0401C0828D1D31460B1F800C0BCF150
:1056D000FF0F34DD546800202EE000F1080C4FF07D
:1056E000010808FA0CF3B1F800C00CEA03069E4268
:1056F00021D183004FF00F0C0CFA03F7BC4305FADD
:1057000003FC4CEA040491F803C0BCF1280F05D156
:1057100000F1080C08FA0CF8C2F8148091F803C0E4
:10572000BCF1480F07D100F1080C4FF0010808FA4E
:105730000CF8C2F81080401C0828CED35460BDE895
:10574000F0814FF6FF710180022181700421C17048
:1057500070470246002093680B400BB1012000E027
:10576000002070470146886880B2704702460020DA
:10577000D3680B400BB1012000E0002070470146C8
:10578000C86880B2704701617047416170470AB1D3
:10579000016100E041617047C16070474FF48032A1
:1057A0000A4382618161826182698269704702462F
:1057B0000020434B18684FF68073184040EA0210EF
:1057C00008433F4B186070473E49C8617047F0B5C9
:1057D0000A46002300240021002500F00046B6F10F
:1057E000004F02D1364EF16901E0354E7168C0F3C9
:1057F000034583B200F44016B6F5401F08D121F0EE
:1058000070612F4E766826F070662D4F7E6012E034
:1058100000F48016B6F5801F06D1032606FA05F4BB
:10582000A14341F0706106E0460D360103FA06F629
:10583000B14341F0706122B1460D360103FA06F61C
:10584000314300F00046B6F1004F02D11C4EF16129
:1058500001E01B4E7160F0BD30B500228B071C0FBC
:105860000F2303FA04F2164B08338C1053F824303C
:105870009343134C08348D1044F8253023468C1084
:1058800053F824308C07240F00FA04F423430C4C03
:1058900008348D1044F8253030BD0A49DC310860E9
:1058A0007047000000080140000C0140001001405A
:1058B0000014014000180140001C0140002001407C
:1058C0000000014000002042DF48006840F0010075
:1058D000DD49086008464068DC490840DA4948600C
:1058E00008460068DA490840D74908600846006859
:1058F00020F4802008600846406820F4FE004860DC
:105900004FF41F0088607047CF49096821F4803147
:10591000CD4A11601146096821F480211160B0F56B
:10592000803F03D0B0F5802F0ED106E0C64909684C
:1059300041F48031C44A116007E0C349096841F469
:10594000A021C14A116000E000BF00BF704710B540
:1059500001460022002300204A11012A02D1BA4C3C
:10596000236806E0022A02D1B74C236A01E0B64C54
:10597000636A01F01F02012494401C400CB1012015
:1059800000E0002010BD38B5002000900024002564
:1059900000BF3120FFF7DBFF05460098401C009058
:1059A0000098B0F5A06F01D0002DF2D03120FFF7A4
:1059B000CEFF08B1012400E00024204638BD014696
:1059C0000020A14A106820F0F80040EAC1001060F1
:1059D0007047A04908607047024600209A4B5868FB
:1059E00020F47C1042EA01031843974B586070473B
:1059F00098490866704701460020934A506820F095
:105A000003000843506070478F48406800F00C0066
:105A10007047014600208C4A506820F0F00008438F
:105A20005060704701460020874A506820F4E060CB
:105A300008435060704701460020834A506820F4B4
:105A4000605040EAC1005060704729B17E4A527AE6
:105A500002437D4B5A7204E07B4A527A82437A4B6E
:105A60005A7270477B49D831086070470146002060
:105A7000754A506820F44040084350607047002148
:105A8000714A20321170704A82F82010012802D029
:105A900004280AD104E001216B4A2032117005E08C
:105AA0000521694A2032117000E000BF00BF704735
:105AB0006949086070476449096A0143624A116292
:105AC0007047654944390860704730B500210022AD
:105AD000002400235C4D6D6805F00C0121B1042900
