:020000040800F2
:10000000B8150020CD030008493600084B3600081B
:100010004F3600085336000857360008000000002D
:100020000000000000000000000000005B36000837
:100030005D360008000000005F3600087B360008CF
:10004000E7030008E7030008E7030008E7030008E8
:10005000E7030008E7030008E7030008E7030008D8
:10006000E7030008E7030008E7030008E7030008C8
:10007000E7030008E7030008E7030008E7030008B8
:10008000E7030008E7030008E7030008E7030008A8
:10009000E7030008E7030008E7030008E703000898
:1000A000E7030008E7030008E7030008E703000888
:1000B000E70300083327000899260008E703000833
:1000C000E7030008E7030008E7030008E703000868
:1000D000E7030008E5270008E7030008E703000836
:1000E000E7030008E7030008E703000800F002F850
:1000F00000F06DF80AA090E8000C82448344AAF155
:100100000107DA4501D100F062F8AFF2090EBAE852
:100110000F0013F0010F18BFFB1A43F0010318473B
:10012000C4D50000E4D500000A444FF0000C10F8DC
:10013000013B13F0070408BF10F8014B1D1108BF65
:1001400010F8015B641E05D010F8016B641E01F805
:10015000016BF9D113F0080F1EBF10F8014BAD1C55
:100160000C1B09D16D1E58BF01F801CBFAD505E073
:1001700014F8016B01F8016B6D1EF9D59142D6D3CD
:10018000704700000023002400250026103A28BFF5
:1001900078C1FBD8520728BF30C148BF0B607047F9
:1001A00066290DF06A80642909F02C82782909F00B
:1001B0006582002070471FB509F012FE0400002080
:1001C00000210BF0D9FDE0601FBD10B510BD09F096
:1001D00023FF1146FFF7EFFF03F04AF909F041FF53
:1001E00003B4FFF7F2FF03BC01F023F90CB50020C4
:1001F000019000906C48006840F480306A490860C3
:1002000000BF6948006800F4003000900198401C6D
:100210000190009818B90198B0F5A06FF1D162482B
:10022000006800F4003010B10120009001E00020CF
:1002300000900098012843D15C48006840F010000D
:100240005A4908600846006820F003000860084624
:10025000006840F002000860534840685249486016
:100260000846406848600846406840F4806048603E
:100270000846406820F47C1048600846406840F416
:10028000E81048600846006840F08070086000BFD1
:100290004548006800F000700028F9D042484068E6
:1002A00020F00300404948600846406840F00200E2
:1002B000486000BF3C48406800F00C000828F9D1B5
:1002C0000CBD10B5FFF792FF10BD10B536480068A1
:1002D00040F001003449086008464068344908404D
:1002E0003149486008460068324908402E49086094
:1002F0000846006820F4802008600846406820F422
:10030000FE0048604FF41F008860FFF7DAFF4FF0EF
:1003100000602949086010BD10B5002100200022AE
:10032000214B5B6803F00C0121B1042906D0082998
:1003300028D107E0214B224C236027E01F4B204CA3
:10034000236023E0184B5B6803F47010164B5B6866
:1003500003F48032022303EB904022B9194B43434C
:10036000174C23600DE0104B5B6803F4003323B19E
:10037000144B4343124C236003E0104B4343104C97
:10038000236003E00D4B0E4C236000BF00BF064B03
:100390005B68C3F303130C4CE15C094B1B68CB4057
:1003A000074C236010BD00000010024000200240F6
:1003B0000000FFF8FFFFF6FE08ED00E000127A00F3
:1003C0000000002000093D0004000020094880478B
:1003D00009480047FEE7FEE7FEE7FEE7FEE7FEE727
:1003E000FEE7FEE7FEE7FEE704480549054A064B3F
:1003F00070470000CB020008ED000008B80F002095
:10040000B8150020B8110020B811002070B50446BE
:1004100003F039F9054600BF03F035F9401B04EB42
:100420004401C1EBC411B0EBC10FF5D370BD70B581
:10043000044603F028F9054600BF03F024F9401BE9
:10044000A042FAD370BD000010B574480078C0F324
:10045000C0020821724805F07CFD70480078C0F3A6
:10046000800202216E4805F074FD6C480078C0F3EC
:1004700040024FF480716B4805F06BFD67480078CF
:1004800000F001024FF40061664805F062FD10BD06
:1004900010B565480078022806D10F205F49087022
:1004A00001206249087076E061480078C0F340009E
:1004B00028B10020594908705C4908706BE05D481C
:1004C000007830B10320554908700420574908705E
:1004D00061E05748007800F0010088B15348007887
:1004E000022803D00F204D49087005E04B480078E2
:1004F00080F00F004949087002204C4908704AE01A
:100500004D48007888B949480078092803D003206D
:100510004249087005E04148007880F00F003F49EB
:10052000087009204149087035E0444800680128F6
:1005300016D13E480078072803D0082037490870B4
:100540000AE03648007840003449097840EAE10082
:1005500000F00F00314908700720344908701AE094
:100560003548407830B903202C49087004202F49C1
:10057000087010E02D480078062803D00320274992
:10058000087005E02548007880F0030023490870D2
:10059000062026490870FFF757FF10BD10B500244C
:1005A0001CE022480078072803D008201B49087067
:1005B0000AE01A48007840001849097840EAE1004A
:1005C00000F00F0015490870072018490870FFF760
:1005D0003BFF6420FFF71AFF601CC4B2102CE0DB65
:1005E000002417E011480078022803D00F200B499F
:1005F000087005E00948007880F00F00074908708E
:1006000002200A490870FFF71FFF6420FFF7FEFE73
:10061000601CC4B2062CE5DB10BD000014000020F5
:10062000000C01400008014070020020150000206D
:1006300010020020C00000206C0B002008020020E7
:10064000F8B504460D4616466B4601227521D020AA
:1006500001F0EFFB6B4601227521D02001F0E9FB90
:100660009DF80000682801D00020F8BD80226B2191
:10067000D02001F05DFB3220FFF7C8FE00221921D7
:10068000D02001F055FB03226B21D02001F050FB5C
:1006900072223721D02001F04BFB01223821D020DB
:1006A00001F046FB32461A21D02001F041FB2246E0
:1006B0001B21D02001F03CFB2A461C21D02001F058
:1006C00037FB1CB9FD48FE49086014E0012C03D13A
:1006D000FC48FB4908600EE0022C03D1FA48F849B7
:1006E000086008E0032C03D1F848F549086002E0EF
:1006F0000020F34908601DB9F548F649086010E08C
:10070000012D03D1F448F34908600AE0022D03D11A
:10071000F248F049086004E0032D02D1F048ED49A9
:1007200008600120A1E71CB56B4606223B21D020C2
:1007300001F07FFB9DF801109DF8002041EA0221A5
:1007400008B20CF0D5FA0446E248016820460CF0E5
:100750005FFBE44908609DF803109DF8022041EA20
:10076000022108B20CF0C4FA0446DA4801682046B7
:100770000CF04EFBDB4948609DF805109DF8042005
:1007800041EA022108B20CF0B3FA0446D1480168EC
:1007900020460CF03DFBD34988601CBD1CB56B4660
:1007A00006224321D02001F044FB9DF801109DF862
:1007B000002041EA022108B20CF09AFA0446C0482F
:1007C000016820460CF024FBC649C8609DF8031060
:1007D0009DF8022041EA022108B20CF089FA044691
:1007E000B748016820460CF013FBBE4908619DF82C
:1007F00005109DF8042041EA022108B20CF078FAB5
:100800000446AF48016820460CF002FBB549486138
:100810001CBD2DE9F04F93B00EAB0E223B21D02032
:1008200001F007FB9DF839109DF8382041EA0221BC
:1008300008B20CF05DFA0446A648016820460CF0A8
:10084000E7FAA84908609DF83B109DF83A2041EA74
:10085000022108B20CF04CFA04469E48016820467A
:100860000CF0D6FA9F4948609DF83D109DF83C2059
:1008700041EA022108B20CF03BFA044695480168AF
:1008800020460CF0C5FA974988609DF841109DF804
:10089000402041EA022108B20CF02AFA04468848B6
:1008A000016820460CF0B4FA8E49C8609DF84310E8
:1008B0009DF8422041EA022108B20CF019FA0446E0
:1008C0007F48016820460CF0A3FA864908619DF82C
:1008D00045109DF8442041EA022108B20CF008FAC4
:1008E00004467748016820460CF092FA7D49486139
:1008F00048690CF001F804460D467A4908690BF086
:10090000FBFF06460F467749C8680BF0F5FF8046A7
:100910008946744988680BF0EFFF82468B4671491F
:1009200048680BF0E9FFCDE90C016E4908680BF04F
:10093000E3FFCDE902ABCDE90489CDE90667CDE956
:100940000845CDE90A01DDE90C01CDE90001664861
:10095000DDE90A2308F022FE13B0BDE8F08F08B5E8
:100960006B4601223A21D02001F063FA9DF8000085
:1009700008BD70B5044602F086FE05460EE0202153
:100980005A4805F0C8FA012803D1FFF742FF0120B9
:1009900070BD02F078FE401B00D5002502F073FE0A
:1009A000401BA042EBD30020F2E770B5044602F0F2
:1009B0006AFE05460DE0FFF7D2FF00F0010018B116
:1009C000FFF727FF012070BD02F05DFE401B00D540
:1009D000002502F058FE401BA042ECD30020F2E7B5
:1009E0002DE9F04F99B0642500200B900C900D90EC
:1009F000089009900A900590069007900290039045
:100A000004900FAB01221B21D02001F012FA2C48D8
:100A1000D0F800800EAB01221C21D02001F009FA91
:100A20002C48D0F8009000221B21D02001F080F942
:100A30004FF07E502249086002221C21D02001F094
:100A400077F94FF07E502349086000242AE0012006
:100A5000FFF7DCFCFFF7DDFE224A11680B980BF074
:100A600077FF0B901F4A51680C980BF071FF0C90A8
:100A70001C4A91680D980BF06BFF0D90194AD168D4
:100A800008980BF065FF0890164A116909980BF059
:100A90005FFF0990134A51690A980BF059FF0A90B9
:100AA000601CC4B2AC42D2DBE0221B21D02001F09A
:100AB0003FF9E2221C21D0201AE000005BA00B3994
:100AC0001800002058A08B3958A00B3A54A08B3A3C
:100AD0000AE81C3A1C0000200AE89C3A0AE81C3B81
:100AE0000AE89C3B200D00209CD60008000C014029
:100AF00001F01EF91420FFF789FC00242AE00120F0
:100B0000FFF784FCFFF785FE9E4A116805980BF0FD
:100B10001FFF05909B4A516806980BF019FF06903D
:100B2000984A916807980BF013FF0790954AD1688F
:100B300002980BF00DFF0290924A116903980BF096
:100B400007FF03908F4A516904980BF001FF04904E
:100B5000601CC4B2AC42D2DB002435E028460CF065
:100B60000FF982460BA951F8240051460BF064FF9F
:100B70000BA941F8240028460CF002F9824608A986
:100B800051F8240051460BF057FF08A941F8240002
:100B900028460CF0F5F8824605A951F82400514684
:100BA0000BF04AFF05A941F8240028460CF0E8F8AC
:100BB000824602A951F8240051460BF03DFF02A9DC
:100BC00041F82400601CC4B2032CC7DB18AB04221C
:100BD0000D21D02001F02DF99DF860001C2101EAC3
:100BE000E0009DF86310C1F3011108438DF85C002B
:100BF0009DF861001C2101EAE0009DF86310C1F33B
:100C0000810108438DF85D009DF862001C2101EA16
:100C1000E0009DF8631001F0030108438DF85E00C9
:100C20009DF8600000F01F008DF858009DF86100ED
:100C300000F01F008DF859009DF8620000F01F00C1
:100C40008DF85A00002427E017A9095D481E0CF012
:100C50004FF84D4901900BF0EFFE834659464B4843
:100C60000AF0C0FB82464A490CF0D2F813A941F8B9
:100C7000240016A9095D481E0CF03AF8834659462F
:100C800044480AF0AFFB824643490CF0C1F810A972
:100C900041F82400601CC4B2032CD5DB3F491198F5
:100CA0000CF0B6F811909DF83C201B21D02001F0EB
:100CB0003FF83B48C0F800809DF838201C21D02028
:100CC00001F036F83748C0F80090002456E008AA32
:100CD00052F8241002AA52F824000CF059FA01909C
:100CE00010A850F8241001980CF052FA83462E49AF
:100CF0000CF08EF8824610A850F8241050460BF0E5
:100D00009BFE06460BAA52F8241005AA52F82400AE
:100D10000CF03EFA019013A850F8241001980CF042
:100D200037FA834620490CF073F8824613A850F82E
:100D3000241050460BF080FE074627F0004A1B495E
:100D400050460CF031F902D24FF0010B01E04FF0A8
:100D5000000B26F0004A154950460CF025F901D247
:100D6000012000E000204BEA000BBBF1000F03D094
:100D7000002019B0BDE8F08F601CC4B2032CA6DBC4
:100D80000120F6E7200D00200000F0412D2D2D4020
:100D90007B14AE4454E3853F00B04C45000080BF57
:100DA000180000201C0000200000C8420000604124
:100DB0002DE9F05F04460D4616461F46DDF82880F3
:100DC000394628460BF0C4FD834641460BF0C0FD72
:100DD000824631460CF0DCF981460BF023FF00B26D
:100DE0002080394628460BF0B3FD834641460CF07F
:100DF000CFF9824631460BF0ABFD81460BF012FF76
:100E000000B26080394628460CF0C2F9834641465C
:100E10000CF0BEF9824631460CF0BAF981460BF06F
:100E200001FF00B2A080394628460CF0B1F9834694
:100E300041460BF08DFD824631460BF089FD81461F
:100E40000BF0F0FE00B2E080BDE8F09F30B5B0F5E9
:100E50007A7F02DB40F2E73404E0002801DA002464
:100E600000E004464FF08045AC86B1F57A7F02DBA6
:100E700040F2E73404E0002901DA002400E00C46E7
:100E80004FF080452C87B2F57A7F02DB40F2E734E1
:100E900004E0002A01DA002400E014464FF0804507
:100EA000AC87B3F57A7F02DB40F2E73404E0002B35
:100EB00001DA002400E01C46014D2C8030BD00000A
:100EC0004000004070B505460C4610217D4805F0F5
:100ED0003EF8284600F018F90646204600F014F9BE
:100EE0001021784805F031F8304670BD70B50446E1
:100EF0001021744805F02BF8204600F005F9002079
:100F000000F002F9054610216E4805F01EF828464B
:100F100070BD2DE9F04107460D461646102169487F
:100F200005F015F8384600F0EFF88046002404E09C
:100F3000285D00F0E9F8601CC4B2B442F8DB10216F
:100F4000604805F002F84046BDE8F0812DE9F04127
:100F500007460D46164610215A4804F0F8FF384659
:100F600000F0D2F88046002405E0002000F0CCF824
:100F70002855601CC4B2B442F7DB1021514804F07C
:100F8000E4FF4046BDE8F08170B504460D464FF4DD
:100F900000414C4804F0DBFF2A462146A020FFF721
:100FA000B8FF4FF40041474804F0CFFF70BD1FB5B4
:100FB00045A103C9CDE902010024052202A9302080
:100FC000FFF7A7FF052269461020FFF7BFFF00BF0C
:100FD00006E01DF80400C22800D003E0601CC4B283
:100FE000052CF6DB00BF052C05D139A008F0D6FA98
:100FF000012004B010BD3BA008F0D0FA0020F8E7B3
:1010000010B5FFF7D4FF08F033FA10BD10B54FF458
:1010100000412C4804F09BFFFF21E220FFF752FF24
:10102000052237492A20FFF774FF01212120FFF70D
:1010300049FF01212220FFF745FF28212520FFF746
:1010400041FF20213120FFF73DFF0F212620FFF730
:1010500039FF0F212020FFF735FF4FF400411948D9
:1010600004F073FF10BD10B50720FFF73FFF0446E3
:1010700004F0400058B1202222496120FFF766FFAA
:1010800008F0ABF921462720FFF71CFF002410BD14
:1010900070B504460720FFF729FF0546294627209B
:1010A000FFF710FF05F0400050B1202221466120DB
:1010B000FFF74CFFFF21E220FFF704FF002070BD87
:1010C0000120FCE700080140C2C2C2C2C200000009
:1010D0004E524632344C303120666F756E642E2E7F
:1010E0002E0D0A004E524632344C30312063686572
:1010F000636B206661696C65642E2E2E0D0A0000FC
:1011000020000020CC02002010B5044600BF0221C0
:101110000A4806F0F2FD0028F9D02146074806F0FB
:1011200099FD00BF0121054806F0E7FD0028F9D030
:10113000024806F091FDC0B210BD00000030014031
:1011400010B58B488B4948608B4848608BA008F0ED
:1011500025FA10BD8748006940F080008549086184
:1011600070478448C16801F0010008B10120704750
:1011700001F0040008B10220F9E701F0100008B105
:101180000320F4E70020F2E770B5044600BFFFF744
:10119000E8FF0546012D00D006E00120FFF747F9E2
:1011A000601E84B2002CF2D100BF04B9FF2528468E
:1011B00070BD70B50546002445F6FF70FFF7E4FFEB
:1011C0000446C4B96B48006940F0020069490861EF
:1011D00008464561006940F04000086145F6FF702F
:1011E000FFF7D2FF0446012C05D06248006920F0C9
:1011F000020060490861204670BD70B505460E4684
:10120000FF20FFF7C1FF044694B95A48006940F037
:101210000100584908612E80FF20FFF7B5FF044602
:10122000012C05D05348006920F0010051490861A4
:10123000204670BD0146088870472DE9F0410546FB
:101240000E461746002407E036F814102846FFF72C
:10125000D4FFAD1C601C84B2BC42F5DBBDE8F0815C
:1012600030B503460C461546002207E01846FFF746
:10127000E1FF24F812009B1C501C82B2AA42F5DB4D
:1012800030BD2DE9F05F80468A461746B8F1006F01
:1012900002D34248804501D3BDE8F09FFFF750FFDD
:1012A000A8F1006B4FEA9B25CBF34809C9F5007400
:1012B000A74200DC3C464DE04FF0006101EB852089
:1012C0008A143749FFF7CCFF00260BE009EB060034
:1012D000334931F810004FF6FF71884200D003E027
:1012E000701C86B2A642F1DB00BFA6421BDA4FF0AB
:1012F000006101EB8520FFF75CFF002608E03AF86B
:10130000160006EB0901264A22F81100701C86B26D
:10131000A642F4DB4FF0006101EB85208A142049DE
:10132000FFF78BFF04E0224651464046FFF785FF5A
:10133000A74200D10FE06D1C4FF000090AEB440AF0
:10134000A044381B87B2B7F5007F02DD4FF400746C
:1013500000E03C46B0E700BFFFF7FCFE00BF9BE7A4
:1013600013B50446012201A92046FFF78AFF1CBDE0
:101370002301674500200240AB89EFCD496E6E65C1
:101380007220464C41534820756E6C6F636B20731E
:101390007563636573732E2E2E0D0A00000001081D
:1013A0000C030020002033490880488040F2FF10E1
:1013B000888031488860002030490880488040F2A9
:1013C000FF1088802E4888607047028883881A4002
:1013D000836899540288521C0280704710B50446F5
:1013E00021462448FFF7F1FF012240F227712548EA
:1013F00006F007F810BD70B504460D46E0B2FFF7E1
:10140000EDFF204670BD01464A888B881A408B68E4
:10141000985C4A88521C4A80704710B504461748A9
:10142000FFF7F1FF10BD10B50446E0B2FFF7D6FF9D
:1014300010BD00BF7047014608884A88801A8A8814
:101440001040704701884180704770B504460D46D2
:1014500004E014F8011B0748FFF7B7FF281EA5F1A9
:101460000101CDB2F5D1012240F22771054805F006
:10147000C8FF70BD0C0700202409002018070020B9
:10148000240700200038014010B504467B4800685E
:1014900020F01F0079490860084600682043086072
:1014A00001217648343806F0D0FF00BF7348343845
:1014B000006800F002000028F8D07048183000687A
:1014C00080B210BD2DE9F04107460C4600250026EC
:1014D00005E03846FFF7D8FF0544701CC6B2A642A7
:1014E000F7DBB5FBF4F080B2BDE8F0812DE9F84FF1
:1014F00014211020FFF7E6FF81460BF041FC044663
:101500000BF0FAF907464FF066325D4B0AF0E4FE45
:1015100005460AF047FC009000980BF0EDF9804674
:10152000584A594B0BF00CF80646584A584B0AF0EB
:1015300027FD04460022574B0AF066FC82460AF05B
:1015400031FC0090544900980BF062FC0090009828
:101550000BF068FBBDE8F88F10B50A210820FFF7F3
:10156000B1FF4E49088008880BF00AFC04464C493C
:101570000BF04EFC494948600846406810BD70B504
:10158000FFF7EAFF4748007800283AD04349486807
:101590000BF0B2F90446444A444B0AF061FE07D806
:1015A0004348007820F00100401C4149087005E0E4
:1015B0003F48007820F001003D49087037494868ED
:1015C0000BF09AF904464FF066323A4B0AF048FEA7
:1015D00013D839480078401C37490870084600780D
:1015E000082831DD02203549087040F2DC503449CA
:1015F000088048808880C88026E000202E49087036
:1016000022E0264948680BF077F904464FF0333260
:101610002C4B0AF025FE11D2204948680BF06CF9DA
:1016200004460022284B0AF055FF07D220480078D4
:1016300020F00100401C1E49087005E01C4800789D
:1016400020F001001A490870144948680BF054F959
:10165000044600221C4B0AF003FE07D2144800780F
:1016600020F00200801C1249087005E01048007844
:1016700020F002000E49087070BD000034240140C3
:1016800066665A3FE17A14AE47E1F63F22FDF675F1
:10169000E09C713F0000394000002041140200200E
:1016A000C352D63AAC0200208FC2F5285C8F0A40A4
:1016B0001002002066660A40300000207002002000
:1016C000B602002033330D400000F03F2DE9FC5FEF
:1016D0000021FE4800680BF071FA24D1FC48007824
:1016E00032280FDDFA4800780BF04AFB0546294600
:1016F000F84800680BF0A0F9F44908600120F649A9
:10170000087007E0F548016BF24800680BF020F91B
:10171000F0490860EE480078401CED49087000244C
:101720002046BDE8FC9FED49086BE84909680BF0CD
:1017300083F98346EA4909F055FE82464FF07E510F
:101740000BF094FC81460BF0D7F80022E54BCDE975
:1017500000010AF0C1FD07464FF08042E24B0AF05B
:10176000BBFD05460AF01EFB04462046D9E738B506
:10177000002412E0A22000EB4400C1B26B4602221A
:10178000EE2000F056FB9DF801009DF8001040EAA5
:101790000120D64921F81400641C062CEADB38BD70
:1017A00010B51E21EE2000F00AFB10BD08B56B46F7
:1017B00003220021EE2000F03CFB9DF80000000415
:1017C0009DF8011000EB01209DF80210084408BDAF
:1017D00070B504460D46FFF7E3FF6420FEF716FEE2
:1017E000FFF7C5FF05F15000C1490870092D1FD250
:1017F000DFE805F0051E0A1E0F1E141E19004FF427
:101800007A70BC49086018E040F2DC50B9490860C1
:1018100013E040F6C410B74908600EE041F288308A
:10182000B449086009E042F21C50B249086004E083
:1018300042F21C50AF49086000BF00BF04F14000F5
:10184000AD490870092C1FD2DFE804F0051E0A1EFE
:101850000F1E141E19004FF47A70A849086018E092
:1018600040F2DC50A549086013E040F6C410A349DB
:1018700008600EE041F28830A049086009E042F2B9
:101880001C509E49086004E042F21C509B490860CD
:1018900000BF00BF9A489B49C86070BD70B5994AA7
:1018A000D1688E4A106B0BF0C7F806468C4909F0D8
:1018B00099FD05464FF07E510BF0D8FB0446924946
:1018C0000BF0A6FA70BD2DE9F34F89B08748018966
:1018D0000A98A0EB01298548408900214FEAE97266
:1018E000A0FB093C01FB09C100FB0210410241EAD7
:1018F000D35000F5FA667D4841880020000440EA94
:1019000011400A047949C98800234FEAE97CA1FB08
:1019100009AB03FB09B301FB0C334FEADA1141EACF
:101920004361511840EBE310CDE906106F48018880
:101930004FF000004FEAC03040EA51404FEAC13258
:101940006A4989884FF000034FEAE97CA1FB09ABA3
:1019500003FB09B301FB0C334FEA1A2141EA03618F
:10196000511840EB2320CDE90410B6F5FA6F6BDA7D
:1019700009FB09F0C0170890F0174FF4FA62B11A8A
:1019800060F10000A1FB014200FB012201FB0025E8
:1019900005210020A4FB012305FB013104FB0010FD
:1019A0005FEA60084FEA32074FF005014FF000028E
:1019B000A4FB010305FB013104FB02114FEA900077
:1019C00040EA81704FEAA101CDE902014F48864209
:1019D00028DAF01740F2DC51711840F10000A1FB49
:1019E000014200FB012201FB002507210022A4FB8C
:1019F000010305FB013104FB0212C71942EB080881
:101A00000B210020A4FB012305FB013104FB001185
:101A100010464A104FEA3003DDE9020118184A4126
:101A2000CDE902020898361ADDE90610C91B60EB01
:101A30000800CDE90610DDE90230DDE90412C91A1B
:101A400062EB0002CDE904120998C317DDE9042115
:101A5000A0FB02CA03FB02A200FB01214FEA5C507B
:101A600040EAC1234815DDE906219A1A60EB01011D
:101A7000D00B40EA4140C913CDE900010BF053F906
:101A80001649086330460BF033F9824620490BF0C3
:101A9000BFF912494863FFF719FE1E4908600BB0F1
:101AA000BDE8F08F10B51C480078252847D101F01B
:101AB000EAFD1A490968884278D9FFF777FE184984
:101AC00008600D480178EE202CE000004C0000205A
:101AD000480000205000002041000020200D002080
:101AE00001DE423E1AE95041E17A843F240B002096
:101AF0003400002038000020350000203C00002089
:101B000080E6C547740D0020002A2D4724FAFFFF08
:101B10000AD7233C4400002054000020600000202D
:101B20005800002000F04BF901F0ADFD6F49096845
:101B300008446F49086052206E49087036E06D48CD
:101B40000078522823D101F09EFD69490968884236
:101B50002CD9FFF72BFE6849086068480168664881
:101B60000068FFF7B0FEFF206549087065480178FE
:101B7000EE2000F024F901F086FD6349096808446D
:101B80005B49086025205B490870012010BD5D4855
:101B90000178EE2000F013F901F075FD5A4909684B
:101BA0000844534908602520524908700020EDE799
:101BB00070B500240A2500205449886004E0FFF72E
:101BC00071FF08B1681EC5B2002DF8D10CE0FFF717
:101BD00069FF48B14E4A116B4C4A90680AF0B8FE52
:101BE0004A498860601CC4B2322CF0DB20460BF0FE
:101BF000C7F806464549886831460AF01DFF434943
:101C0000886070BD4149C860704710B54148007890
:101C1000012804D0022812D004284DD129E03948E7
:101C20000178EE2000F0CBF801F02DFD364909686F
:101C300008443949086002203649087040E001F044
:101C400022FD35490968884212D9FFF7AFFD3349B3
:101C5000086033480178EE2000F0B1F801F013FD80
:101C60002249096808442C49086004202949087061
:101C700026E001F008FD2849096888421BD9FFF7D2
:101C800095FD284908602548016826480068FFF747
:101C90001AFEFF201A4908701A480178EE2000F059
:101CA0008EF801F0F0FC1849096808441A490860E8
:101CB00002201849087003E002201649087000BF8E
:101CC00000BF10BD10B501F0DEFC1749441807E055
:101CD000FFF79BFF01F0D7FCA04201D3002010BD0D
:101CE000124800780028F3D00120F8E73C000020DB
:101CF00060000020540000205C00002058000020FC
:101D0000420000203400002038000020740D002024
:101D1000200D0020400000206C0000206400002006
:101D20003500002068000020A0252600410000208A
:101D300070B504460E46154600BF4FF40031ED481D
:101D400005F046FE0028F8D10121EA4805F03DFDE6
:101D500000BFE949E74805F019FE0028F9D0002244
:101D60002146E44805F087FD00BFE449E14805F05D
:101D70000DFE0028F9D03146DE4805F076FD00BFA3
:101D8000DE49891CDB4805F001FE0028F8D0294611
:101D9000D84805F06AFD00BFD849891CD54805F030
:101DA000F5FD0028F8D00121D24805F01AFD00BF4A
:101DB000D349D04805F00CFE0028F9D170BD70B5AC
:101DC00004460D4600BF4FF40031CA4805F000FE3E
:101DD0000028F8D10121C74805F0F7FC00BFC6492B
:101DE000C44805F0D3FD0028F9D000222146C1489F
:101DF00005F041FD00BFC149BE4805F0C7FD002800
:101E0000F9D02946BB4805F030FD00BFBB49891C0D
:101E1000B84805F0BBFD0028F8D00121B54805F011
:101E2000E0FC00BFB649B34805F0D2FD0028F9D167
:101E300070BD2DE9F04106460F4615461C4600BF11
:101E40004FF40031AB4805F0C3FD0028F8D1012163
:101E5000A84805F0BAFC00BFA749A64805F096FDC2
:101E60000028F9D000223146A24805F004FD00BF49
:101E7000A249A04805F08AFD0028F9D039469D48BE
:101E800005F0F3FC00BF9D49891C9A4805F07EFDD2
:101E90000028F8D00121974805F0AFFC4FF2FF7100
:101EA000944805F007FD0121924805F08EFC00BF23
:101EB0009149904805F06AFD0028F9D00122314689
:101EC0008C4805F0D8FC00BF8D490E39894805F0D3
:101ED0007FFD0028F8D0012D1AD10021854805F09A
:101EE0008CFC72B68348183000880121814805F0C7
:101EF00078FC62B600BF824930317E4805F068FD4B
:101F00000028F8D07B4805F0B2FC04F8010B67E02C
:101F1000022D25D1A902774805F0CCFC72B6754890
:101F2000183000880021734805F067FC62B600BFD6
:101F300073490C396F4805F04BFD0028F8D072B694
:101F400001216C4805F04DFC6A481030008804F807
:101F5000010B62B667481030008804F8010B3FE0BF
:101F60006448183000880CE000BF65490C396148AE
:101F700005F02EFD0028F8D05E4805F078FC04F846
:101F8000010B2846691ECDB20328EDD100BF5C4984
:101F90000C39584805F01CFD0028F8D000215548A0
:101FA00005F02BFC72B6534805F061FC04F8010BF8
:101FB0000121504805F015FC62B64E4805F057FC6B
:101FC00004F8010B00BF4C493F314A4805F0DEFCE4
:101FD0000028F8D0474805F04AFC04F8010B00251A
:101FE00000BF4749434805F0F3FC0028F9D1BDE89C
:101FF000F0812DE9F04105460F4616461C4600BF0C
:102000004FF400313B4805F0E3FC0028F8D10121F2
:10201000384805F0DAFB00BF3749364805F0B6FC12
:102020000028F9D000222946324805F024FC00BFE0
:102030003249304805F0AAFC0028F9D039462D482D
:1020400005F013FC0CE000BF2D490C39294805F0C0
:10205000BFFC0028F8D014F8011B264805F005FC49
:10206000301EA6F10101CEB2EDD100BF24490C39DA
:10207000204805F0ADFC0028F8D001211D4805F0EE
:10208000B0FB00BF1E491B4805F0A2FC0028F9D197
:10209000BDE8F0812DE9F8430746884614461D4601
:1020A000089E6B46012241463846FFF7C2FE601C7F
:1020B000FF2101FA00F0C4F107014A19FF21114183
:1020C000084300F0FF09601B401C06FA00F0C6B28E
:1020D0009DF8000000EA090000909DF800003043E0
:1020E00000909DF8002041463846FFF721FEBDE8EC
:1020F000F883000000540040010003008200070044
:102100001000001008B50F20ADF8000003208DF876
:10211000020018208DF803006946F94803F068FEB4
:102120004FF41060ADF8000002208DF8020010207E
:102130008DF803006946F24803F05AFE4FF4C06080
:10214000ADF8000003208DF8020018208DF8030080
:102150006946EB4803F04CFE0120ADF80000032077
:102160008DF8020000208DF803006946E54803F071
:102170003FFE0A20ADF8000002208DF8020010207A
:102180008DF803006946DF4803F032FE0121DE4886
:1021900003F0FFFE0420ADF8000002208DF80200DD
:1021A00010208DF803006946D64803F021FE202058
:1021B000ADF8000002208DF8020004208DF8030025
:1021C0006946D04803F014FEC020ADF8000003209B
:1021D0008DF802001C208DF803006946C94803F001
:1021E00007FEE020ADF8000003208DF80200182063
:1021F0008DF803006946C24803F0FAFD4FF4004031
:10220000ADF8000003208DF8020010208DF80300C7
:102210006946BB4803F0ECFD1020ADF80000032038
:102220008DF8020010208DF803006946B44803F0D1
:10223000DFFD1021B24803F088FE4FF41061B04872
:1022400003F085FE0E21AF4803F081FE08BD10B5F6
:10225000102005F09DFD022005F086FD4FF4803032
:1022600003F034FF03F071FF4FF4E0114FF48030BE
:1022700003F094FF012003F09DFF00BF392003F01D
:1022800048FF0128FAD1022003F097FF00BF03F0B6
:102290009DFF0828FBD1002003F09DFF4FF48060D4
:1022A00003F0A2FF002003F0A8FF4FF4004003F06A
:1022B000BFFF4820954908700121142004F047F819
:1022C0000121934804F05DF8012145F20D2004F04E
:1022D0004BF80121880304F061F800214FF480409D
:1022E00004F05CF80121480204F058F800214FF492
:1022F000007004F053F810BD00B585B000200090C8
:102300008DF804008DF805004FF460200290002045
:10231000039001208DF8100069467E4806F029F8E8
:10232000012006F0E3F9072301220821794806F08D
:10233000B8F8072301221021764806F0B2F80121EF
:10234000744806F042F8734806F061F800BF71481F
:1023500006F062F80028FAD16E4806F067F800BF70
:102360006C4806F068F80028FAD105B000BD00B549
:1023700087B04FF0804004F05BF840F2E730ADF8F2
:10238000140062480078182190FBF1F0401E80B2E2
:10239000ADF810000020ADF81600ADF8120004A949
:1023A0004FF0804004F018F90121880704F070FC18
:1023B000684604F046FC6020ADF800000120ADF84E
:1023C00002000020ADF80600ADF8080069464FF0A5
:1023D000804004F03EF969464FF0804004F07BF9FC
:1023E00069464FF0804004F0C3F969464FF08040E1
:1023F00004F009FA0821C80604F07AFD0821C8068D
:1024000004F07FFD0821C80604F088FD0821C806F5
:1024100004F08DFD404804F00BF844F61F60ADF861
:1024200014003A48007800EBC00101EB00100121D4
:10243000C1EB800080B2ADF810000020ADF81600AE
:10244000ADF8120004A9344804F0C6F8012132485E
:1024500004F0E4FE012211462F4804F034FC01216F
:102460002D4804F015FC2D4803F0E2FF40F2E73060
:10247000ADF8140025480078401E80B2ADF8100079
:102480000020ADF81600ADF8120004A9234804F0AE
:10249000A3F80121214804F0C1FE012211461F4882
:1024A00004F011FC01211D4804F0F2FB07B000BD4F
:1024B00000B585B00020ADF800004FF48270ADF893
:1024C00002000020ADF80400ADF80600ADF80800E9
:1024D0004FF40070ADF80A001020ADF80C00002099
:1024E000ADF80E000720ADF8100069460C4805F065
:1024F000DBFA01210A4805F07CFB05B000BD0000B5
:1025000000080140000C0140000230007000002073
:1025100007002000002401400004004000080040A3
:10252000003001401FB5564800900020ADF804006F
:102530004BF6FF70ADF806001220ADF808004FF41E
:102540008060ADF80A000001ADF80C0069464D4806
:1025500005F099F801214B4805F013F91FBD1FB58F
:10256000044600940020ADF80400ADF80600ADF874
:1025700008000C20ADF80A000020ADF80C006946F8
:10258000414804F0A6FE012240F225513E4804F0E5
:1025900038FF01213C4804F028FF1FBD08B54FF467
:1025A000A06003F057FB1D208DF8000003208DF87C
:1025B000010000208DF8020001208DF8030068461C
:1025C00003F04DFB1E208DF8000001208DF8010066
:1025D00000208DF8020001208DF80300684603F00A
:1025E0003EFB25208DF8000002208DF80100002020
:1025F0008DF8020001208DF80300684603F02FFBE0
:1026000008BD70B5FFF723FE01F02AF81F480068E7
:102610004FF47A72B0FBF2F1B1F1807F00D31DE08C
:1026200021F07F40401E4FF0E022506150170F22F2
:10263000002807DA13071D0E154B00F00F04241FA6
:102640001D5503E013071C0E124B1C5400BF002045
:102650004FF0E02290610720106100BFFFF787FE76
:102660004FF4E130FFF77BFFFFF722FFFFF75AFF40
:10267000FFF748FDFFF740FEFFF790FF70BD000039
:10268000801A06000054004000380140000000207D
:1026900018ED00E000E400E010B50121694804F005
:1026A000C0FD002844D068480088401C80B26649BC
:1026B0000880052804DB0020088001206349087099
:1026C00063480088401C80B2614908800A2804DB06
:1026D0000020088001205F4908705F480088401C86
:1026E00080B25D490880142804DB002008800120A6
:1026F0005A4908705A480088401C80B258490880DE
:10270000322804DB00200880012056490870564812
:102710000088401C80B254490880642804DB0020F3
:1027200008800120514908700121464804F08AFDC3
:1027300010BD70B501214E4804F073FD002850D043
:102740004CA006F02BFF4C49D1F88C000AF0D4F8CD
:10275000044622460B4649A006F020FF4649D1F820
:1027600088000AF0C9F8044622460B464AA006F043
:1027700015FF4149D1F884000AF0BEF8044622460C
:102780000B464CA006F00AFF51A006F007FF5A497D
:10279000086B0AF0B1F8044622460B4657A006F033
:1027A000FDFE5D4800680AF0A7F8044622460B4685
:1027B0005AA006F0F3FE5049486B0AF09DF8044613
:1027C00022460B465CA006F0E9FE6248018862A042
:1027D00006F0E4FE3EA006F0E1FE0121244804F0EC
:1027E00031FD70BD10B540F22771634804F0EEFE74
:1027F00090B16248FEF707FE044621465E4804F0A9
:1028000061FE5E48FEF717FED8B9002240F227713C
:10281000594804F0F6FD14E040F22551564804F002
:10282000D5FE70B140F22551534804F0F9FE5248EC
:1028300004F04CFE52490870084601785148FEF7F2
:10284000C4FD10BD000800407A0000207400002084
:102850007C000020750000207E0000207600002013
:1028600080000020770000208200002078000020F7
:10287000000400400D0A00006C0B00202059617715
:10288000202D2D2D3E2025352E3266206465677261
:1028900065650D0A000000002050697463682D2DE5
:1028A0002D3E2025352E3266206465677265650DE4
:1028B0000A00000020526F6C6C202D2D2D3E20252B
:1028C000352E3266206465677265650D0A0000006A
:1028D0003D3D3D3D3D3D3D3D3D3D3D3D3D3D3D3D28
:1028E0003D3D3D3D3D3D3D3D3D3D3D3D3D3D3D3D18
:1028F0003D3D3D3D0D0A0000200D00202050726539
:102900007373757265202D2D2D3E2025352E326670
:102910002050610D0A0000004400002020416C742A
:102920006974756465202D2D2D3E2025352E326667
:10293000206D0D0A000000002054656D7065726105
:10294000747572652D2D2D3E2025352E326620B0F2
:10295000430D0A00140200204261747465727920EC
:10296000566F6C746167652D2D2D3E2025332E32F8
:1029700064200D0A00000000003801400C07002010
:10298000880000201807002070B50446002504F0D8
:102990001F041021FE4803F0DAFA2046FEF7B4FBCC
:1029A0000020FEF7B1FB05461021F94803F0CDFAEF
:1029B000284670BD70B504460D46164605F01F0545
:1029C0001021F34803F0C3FA2846FEF79DFB04E00C
:1029D0000020FEF799FB04F8010B301EA6F101015F
:1029E000CEB2F5D11021EA4803F0AFFA70BD70B550
:1029F00004460D4604F01F0444F020041021E4486E
:102A000003F0A5FA2046FEF77FFB2846FEF77CFB85
:102A10001021DF4803F099FA70BD2DE9F04104461A
:102A20000D4616462F4604F01F0444F020041021E2
:102A3000D74803F08CFA2046FEF766FB03E017F850
:102A4000010BFEF761FB301EA6F10101CEB2F6D1FB
:102A50001021CF4803F079FABDE8F08170B5044643
:102A60001021CB4803F073FA2046FEF74DFB0546D4
:102A70001021C74803F069FA284670BD2DE9F047D8
:102A800005460C461646A846C248007808B1002004
:102A900002E0C1480078001B00F0FF09BE48007842
:102AA000844201DA204601E0BB4800780446102148
:102AB000B74803F04CFA3046FEF726FB074603E022
:102AC00018F8010BFEF720FB201EA4F10101CCB287
:102AD000F6D102E00020FEF717FBB9F10000A9F1E2
:102AE000010101F0FF09F5D11021A94803F02DFAE9
:102AF0003846BDE8F0872DE9F04105460C462F46E3
:102B0000A448007808B1002002E0A3480078001B28
:102B100000F0FF08A0480078844201DA204601E076
:102B20009D48007804461021994803F010FA61206E
:102B3000FEF7EAFA064604E00020FEF7E5FA07F899
:102B4000010B201EA4F10101CCB2F5D102E000205E
:102B5000FEF7DAFAB8F10000A8F1010101F0FF0870
:102B6000F5D110218A4803F0F0F93046BDE8F08134
:102B700010B500F088FD044688490C7101F068FF2B
:102B800010BD1CB50021009101914FF40041804817
:102B900003F0DDF98248009901609DF8041001718D
:102BA0007E48007908B9FFF7E3FF1CBD10B500208F
:102BB000FFF7EAFE044604F0020038B944F00201CF
:102BC0000020FFF714FF0520FDF720FC10BD10B515
:102BD000E120FFF743FF10BD10B5E220FFF73EFFF5
:102BE00010BD10B50620FFF7CFFE00F02804202C02
:102BF00001D1002010BD082C01D10220FAE70120EC
:102C0000F8E710B50520FFF7BFFE10BD70B505460B
:102C100000260620FFF7B8FE0446022D01DA2846FA
:102C200000E00220054624F0280455205D49086094
:102C300025B944F020049B20086006E0022D04D151
:102C400044F0080441205749086021460620FFF758
:102C5000CEFE0620FFF798FEA04200D101263046A6
:102C600070BD70B504460620FFF78EFE00F0F80533
:102C7000032C01DA204600E00320044645EA440024
:102C8000C0B2054601460620FFF7B1FE70BD70B523
:102C900004460020FFF778FE20F00C0534B1012C2B
:102CA00002D145F0080501E045F00C052946002059
:102CB000FFF79DFE70BD2DE9F05F04460F461546F7
:102CC0001E46DDF834A0DDE90A98FFF75AFF7F2C95
:102CD00001DA204600E07F2001460520FFF787FE4D
:102CE000012E01DA012004E0202E01DD202000E089
:102CF000304629490870B8F1030F01DA032005E0D6
:102D0000B8F1050F01DD052000E0404626490870B6
:102D100008460078801EC1B20320FFF768FEBAF1B2
:102D2000000F04D03F210120FFF761FE03E00021E6
:102D30000120FFF75CFEB9F1000F14D01D20FFF752
:102D400023FE40F0040B59461D20FFF750FE1C20C7
:102D5000FFF71AFE40F03F0B59461C20FFF747FED5
:102D600001200C4908700C98FFF791FF0E9800F0B5
:102D70000F020F9862F31F1001460420FFF737FE81
:102D80003846FFF76EFF2846FFF740FF70210DE041
:102D900000080140910000209000002092000020D7
:102DA000A8000020B0000020AD0000200720FFF7A1
:102DB0001EFEFFF726FFA04203D1FFF712FFA84235
:102DC00002D00020BDE8F09FFFF706FFFFF7FFFEEF
:102DD000FFF7ECFE6420FDF719FB0020FFF7D4FDA0
:102DE00020F0010B59460020FFF701FE0120E9E722
:102DF00070B504460E46062C11DC0120FFF7C4FD19
:102E0000054626B10120A0402843C5B202E00120BA
:102E1000A040854329460120FFF7E9FD00BF70BDB2
:102E200010B51720FFF7B0FD00F0010080F00100A1
:102E300010BD10B5FF20FFF711FE10BD10B5FFF754
:102E4000F8FFC0F3420010BD10B54FF40041F74841
:102E500003F07DF80020FFF797FD20F002042146E3
:102E60000020FFF7C4FD10BD2DE9F04104460D46DA
:102E700016460020FFF788FD40EA051040EA44109E
:102E800040EA8610C7B239460020FFF7B0FDBDE822
:102E9000F08110B500246020FFF7E0FD0446202CEF
:102EA00006DDFFF799FE0220FDF7B0FA002010BD05
:102EB0002046FCE770B500250020FFF765FD00F017
:102EC0000C040120FFF760FD064604F0080000B97D
:102ED0002EB104F0040008B1022500E001252846C7
:102EE00070BD10B50920FFF74FFD00F0010010BDC7
:102EF00010B54FF40041CD4803F029F81021072008
:102F0000FFF775FDE320FFF7A9FD4FF40041C74827
:102F100003F01BF810BD10B50620FFF735FDC0F318
:102F2000410010BD10B51D20FFF72EFD40F0060436
:102F300021461D20FFF75BFD1C20FFF725FD40F01B
:102F40003F0421461C20FFF752FD0120B8490870BC
:102F500010BD10B51D20FFF717FD40F001042146FC
:102F60001D20FFF744FD10BD10B5FFF762FF0446BA
:102F700070210720FFF73BFD04F02000002801DD51
:102F8000012000E0002000EB800004F01001002987
:102F900001DD012100E0002101EB4101484304F083
:102FA0004001002901DD012100E0002149004843E2
:102FB000C0B210BD10B54FF400419C4802F0C7FFED
:102FC0009C480068FDF733FA1D20FFF7DDFC00F098
:102FD000020028B197480068FDF729FAFFF7F7FDCE
:102FE0009548027895490A20FFF717FD9448017823
:102FF0001120FFF7FCFC0220FFF7C6FC40F00104A3
:1030000021460220FFF7F3FC0020FFF7BDFC20F073
:10301000010421460020FFF7EAFC10BD70B504460C
:103020000220FFF7B1FC0121A14020EA0105294659
:103030000220FFF7DCFC70BD10B50020FFF7A4FCF8
:1030400040F0010421460020FFF7D1FC7021072049
:10305000FFF7CDFC4FF40041744802F076FF794849
:103060000078784949780843764989780843754952
:10307000C9780843734909790843A0B16E480278BA
:1030800070490A20FFF7C9FC6D4801781120FFF74D
:10309000AEFC0220FFF778FC40F00104214602203C
:1030A000FFF7A5FC02E00020FFF7B8FF1D20FFF7A7
:1030B0006BFC00F0020008B1FFF789FD10BD01B5FF
:1030C0005D48027869465D4806F08BFB5A480278F5
:1030D00069461020FFF7A1FC08BD10B556480278DC
:1030E00056491020FFF799FC10BD73B504468CB902
:1030F0005148027801A90A20FFF78FFC5048017857
:103100001120FFF774FC4C48027801A94D4806F0E5
:10311000ADFB1FE0012C0BD14748027801A90B2021
:10312000FFF77BFC464801781220FFF760FC11E0B6
:10313000012C0FDD062C0DDA04F10A01C8B20122C0
:1031400001A9FFF76AFC04F11101C8B23C490978F2
:10315000FFF74DFC0220FFF717FC0121A1400843B7
:10316000C5B229460220FFF742FC7CBD70B504467B
:103170000D4629462046FFF7BEFC70210720FFF7C9
:1031800036FC70BD2DE9F04105460E461446374623
:10319000202C01DA204600E020200446102123489C
:1031A00002F0D5FE05F0070141F0A800FDF7ACFFE5
:1031B00003E017F8010BFDF7A7FF201EA4F10101A2
:1031C000CCB2F6D11021194802F0BFFEBDE8F08163
:1031D0002DE9F04106460F4614461D460CB1A020CD
:1031E00000E0B020024639463046FFF747FC25B1E3
:1031F0004FF400410D4802F0A8FEBDE8F0812DE932
:10320000F04705460E4617461C46DDF8208000F0C4
:1032100068FA00EB080970210720FFF7E8FB4FF47C
:103220000041024802F091FE8CB329E00008014001
:1032300091000020B0000020AD000020920000208E
:1032400090000020A8000020FFF7F3FD00F0100020
:1032500040B110210720FFF7CAFB4FF4004183481B
:1032600002F073FE00F03DFA484509D94FF40041E1
:103270007E4802F06CFEFFF7AAFC0020BDE8F08754
:10328000FFF7D7FD00F001000028DDD107E0FFE7E0
:103290004FF40041754802F05AFEFFF798FC0123F5
:1032A0003A4631462846FFF793FF0120E6E72DE92D
:1032B000F04706460F4690461C46DDF8209000F089
:1032C00010FA00EB090570210720FFF790FB4FF47F
:1032D0000041664802F039FE1CB31BE0FFF7A9FD70
:1032E00000F0100040B110210720FFF780FB4FF4E1
:1032F00000415E4802F029FE00F0F3F9A84209D926
:103300004FF40041594802F022FEFFF760FC002014
:10331000BDE8F087FFF78DFD00F001000028DDD14A
:1033200006E04FF40041514802F011FEFFF74FFC58
:103330000123424639463046FFF74AFF1AE0FFF7BD
:1033400078FD00F0100040B110210720FFF74FFB7F
:103350004FF40041454802F0F8FD00F0C2F9A842E0
:1033600008D94FF40041414802F0F1FDFFF72FFC6E
:103370000020CDE71720FFF707FB00F01000002822
:10338000DDD04FF40041394802F0E1FD7021072003
:10339000FFF72DFB0120BBE770B504460D4600F09A
:1033A000A0F946194FF40041304802F0CEFD1CB39D
:1033B0001AE0FFF73EFD00F0100040B11021072099
:1033C000FFF715FB4FF40041284802F0BEFD00F066
:1033D00088F9B04208D94FF40041244802F0B7FD03
:1033E000FFF7F5FB002070BD1720FFF7CDFA00F0C6
:1033F00010000028DDD001E0FFF7E9FB4FF40041A9
:103400001A4802F0A4FD70210720FFF7F0FA01200E
:10341000E9E72DE9FF410C4616461F46009D00F0E6
:1034200060F900EB070820E069460120FFF75DFE28
:10343000FFF702FEB0B2FCF7E9FFFFF7F1FC28B19D
:10344000FFF7CAFB012004B0BDE8F08100F049F9A4
:10345000404501D90020F6E7285DFF2802D1002071
:10346000285502E0285D401C2855DDE70008014092
:1034700086B0FFF7C6F8FDF795FFFDF78FF8FDF76B
:103480005FFE01F0CEFA0F2001210223CDE90231C7
:10349000CDE904100520002120230222CDE90010EF
:1034A00003212820FFF707FC41F64C530A22042190
:1034B0005748FFF7AEFF022201210320FDF7C0F8B5
:1034C00008210846FEF784F9FEF759F800F012F9D2
:1034D0000A231A4619461846FDF7B8FC01204D4943
:1034E0000870FEF7EFFB91E04B48007868B30020CE
:1034F0004949087000F0C7F848494968401A4849E6
:10350000486000F0C0F84549486002F0B4F8012076
:1035100044490870FEF7C6FA4348007850B100F0FD
:1035200008F938B100204049087001203F4908706F
:103530003F49087005F033FA05F0FAFD00F0A3F8F2
:1035400036494968401A3B494860FFF769FC28B191
:1035500020213948FFF70AFE05F03FFF3748007881
:1035600020B300203549087000F08DF82B49C96858
:10357000401A2B49C86000F086F82849C86005F059
:1035800059FE02F01CFB23480078022801D102F00A
:10359000F0FA00F059FA05F041FB05F078F900F077
:1035A00072F81E49C968401A2249C8602448007848
:1035B00060B300202249087000F065F81749896857
:1035C000401A1749886000F05EF8144988601D4869
:1035D0000088401C80B21B490880322803DB002091
:1035E0000880FDF7CCFF1148007820B100200F497A
:1035F000087001F02DFA02F06BFAFCF749FF00F0B9
:1036000042F806498968401A0A4988606CE7000058
:10361000970000207002002075000020300B002071
:10362000580B0020B6000020C0000020A801002098
:103630006C0B0020440B0020CC0200207600002000
:1036400078000020B4000020704700BFFEE700BFF4
:10365000FEE700BFFEE700BFFEE770477047704718
:1036600000B585B0684602F012FE1F490098B0FB15
:10367000F1F01E49086005B000BD1D480068401CFF
:103680001B490860704700BF194801684FF0E020EF
:103690008269174800688142F6D11448006800EB3F
:1036A0004003C3EBC010C2EBC000104B1B68B0FB63
:1036B000F3F001EB4103C3EBC11300EBC300704710
:1036C00030B50446FFF7DFFF054600BFFFF7DBFF1D
:1036D000401B04EB4401C1EBC411B0EBC10FF5D3A7
:1036E00030BD03480068704740420F00B80000201A
:1036F000BC00002010B500208849487001200870E7
:103700008749884800F0C2FA8549864800F092FB54
:103710008349844800F062FC8149824800F061FDE1
:103720007F49804800F031FE7D497E4800F036FF39
:1037300010BD2DE9F0410026002400270025FFF7E9
:10374000D0FF85B278480088281A87B27748007879
:1037500098B901207549087000BF0CE00020744939
:1037600041F82400734941F82400734908806B49EB
:103770004870601CC4B2032CF0DB0A2F58DB6E4883
:103780000088B0F5967F24DA002418E06B4A52F8DE
:103790002410674A52F8240009F0DAF8644941F825
:1037A0002400664A0C3252F82410624A52F824006F
:1037B00009F0CEF85F4941F82400601CC4B2032C24
:1037C000E4DB5D480088401C5B4908805648058062
:1037D0002EE000241FE05848008809F0D1FA804606
:1037E000534951F82400414609F026F94B49143158
:1037F00041F824005048008809F0C2FA80464D493B
:1038000051F82400414609F017F94449203141F8A4
:103810002400601CC4B2032CDDDB4049C869484960
:1038200009F0B6FC3D49C8610020404908700126F6
:103830003046BDE8F08110B540F21A40FDF7B5F80A
:10384000364A51693D4A106809F0A2FC044600F06E
:10385000A0FA3249C8620A469169384A506809F0AC
:1038600097FC044600F069FB2C4908630A46D169BD
:10387000324A906809F08CFC044600F061FC27494C
:1038800048632E49C86800F02FFD244948642B493D
:10389000086900F0FDFD214988642849486900F065
:1038A00000FF1E49C86410BD2DE9F0470025002621
:1038B00000240BE040F21A40FDF777F81F488168BA
:1038C000284609F045F80546601CC4B2052CF1DB1A
:1038D0001C49284609F0B0F807461048C169384627
:1038E00009F056FC06461649304609F051FC20F016
:1038F0000049484609F000F80746134A134B08F000
:10390000AFFC03D201200549087002E00020034902
:10391000087002480078BDE8F08700006C0B0020BA
:103920000000F0410000C842C4000020C600002092
:10393000080C0020140C0020C2000020200D0020E4
:103940000AE81C410000A0409A9999999999A93FC9
:103950002DE9F04705460C462846A16809F058FABB
:103960008246294609F054FA80464FF0804109F01A
:1039700063F807462846616809F04AFA81463946E5
:1039800008F0E6FF0646216808F0E2FF20602846BE
:10399000A16809F03DFA0646616808F0D9FF606049
:1039A000BDE8F0872DE9FF4F87B014469946DDF852
:1039B00050A05146079809F02BFA0546089909F0DE
:1039C00027FA069054F82900069908F0C1FF44F838
:1039D0002900B9F1000F28D15046069909F018FACC
:1039E0000546616808F0B4FF60605146504609F032
:1039F0000FFA0190069909F00BFA834608F07CFF54
:103A0000074600228F4B08F0BBFACDE90401A068FD
:103A100008F072FFCDE90201DDE9042308F0F4F9B2
:103A2000054608F0BFF9A0600BE0B9F1010F08D11D
:103A30005046069909F0ECF90546A16808F088FFA0
:103A4000A0600BB0BDE8F08F2DE9FF47002001908A
:103A500002900390FFF717FE06467B48006848B1C6
:103A600079490968701A09F08BF98046774908F09E
:103A7000E3FF00E0002007467348066074480078C2
:103A800008B9BDE8FF877348407800B9F9E7724884
:103A9000007878B171480168002009F079FB804610
:103AA0006F480168404609F073FB6E4908600020CA
:103AB000694908706C480078002854D06B4A116836
:103AC000644AD06A09F064FB6249C862674A516877
:103AD000604A106B09F05CFB5E490863634A9168B9
:103AE0005C4A506B09F054FB5A494863002423E0B8
:103AF00000205F4941F82400002519E005EB45034B
:103B0000544A503202EB830252F82400514A2C32BC
:103B100052F8251009F07CF98046554850F82410D9
:103B2000404608F015FF524941F82400681CC5B210
:103B3000032DE3DB601CC4B2032CD9DB4C48806846
:103B400080F000404A49886088684A4908F000FFD0
:103B5000804643488168404609F01AFB4649886020
:103B6000002041490870454801683E48006809F056
:103B70004FF9814641480168484609F049F98046B5
:103B8000039909F073FA039000242EE04FF0000827
:103B9000002513E004EB44032E4A503202EB83026B
:103BA00052F8250001AA52F8251009F031F9814692
:103BB000414608F0CDFE8046681CC5B2032DE9DB06
:103BC0002F480168404609F023F98246394609F03A
:103BD0001FF98146254850F82410484608F0B8FEE1
:103BE000224941F82400601CC4B2032CCEDB1F48DC
:103BF000806880F000401D49886019493846FFF709
:103C0000A7FE1E4800680023154A39460090154853
:103C10000068FFF7C7FE1B480068174900900223A1
:103C20000F4A88683946FFF7BDFE0D4800681649FF
:103C300088600B484068486109488068086200BF96
:103C40001FE7000000000840E40000200024744941
:103C5000410000206C0B00204200002044000020A6
:103C6000440C0020E0000020B60000205C0C002086
:103C7000D40000200AE81C41500C0020C80000209D
:103C8000D0000020CC000020200C00202DE9FE4FA9
:103C900006460C46002700250020029021463046AB
:103CA00008F0CAFE07463946FE4808F0C5FE8046C1
:103CB00007F0A8FF05462946284609F0A9F88346DB
:103CC000F94807F0D1FA4FF08041019009F0A0F8CF
:103CD0008246294609F09CF881464FF07E5108F053
:103CE00037FE8046594608F033FE0290EF480460E4
:103CF0000021006809F058F949D22946284609F000
:103D000087F88046029908F097FEE949086008465E
:103D100001684FF0804009F07BF8E6490860E4480C
:103D20000068E54908602946284609F071F882468E
:103D30004FF07E5109F02CFA81464FF0804109F096
:103D400067F88046029908F077FEDC49086029464A
:103D5000284609F05DF80190D34807F085FA4FF046
:103D60008041009009F054F88346294609F050F844
:103D700082464FF07E5109F079F98146019908F0A9
:103D8000E7FD8046029908F057FECD490860BDE87E
:103D9000FE8F2DE9F0470446002500260021C34888
:103DA000006809F001F802D82046BDE8F087C44851
:103DB0000168C448006809F02BF88046BF480168D4
:103DC000C148006809F024F88146214609F04EF9FF
:103DD0000746414609F0DCF90546284606F076FD1F
:103DE00018B9284606F068FD00B12546B2480168BA
:103DF000B448006809F00CF88046AE480168B24843
:103E0000006809F005F88146A9480168284608F0CD
:103E1000FFFF8246494608F09BFD0746414608F0F1
:103E200097FD0646A8480068A6490860A6480560B0
:103E30003046BAE72DE9FE4F06460C46002700251E
:103E4000002002902146304608F0F6FD074639462C
:103E5000944808F0F1FD804607F0D4FE0546294657
:103E6000284608F0D5FF83468F4807F0FDF94FF04C
:103E70008041019008F0CCFF8246294608F0C8FF37
:103E800081464FF07E5108F063FD8046594608F0A8
:103E90005FFD02908D4804600021006809F084F8FD
:103EA00049D22946284608F0B3FF8046029908F017
:103EB000C3FD87490860084601684FF0804008F05C
:103EC000A7FF844908608248006883490860294642
:103ED000284608F09DFF82464FF07E5109F058F9C0
:103EE00081464FF0804108F093FF8046029908F028
:103EF000A3FD7A4908602946284608F089FF019009
:103F0000694807F0B1F94FF08041009008F080FF58
:103F10008346294608F07CFF82464FF07E5109F027
:103F2000A5F88146019908F013FD8046029908F032
:103F300083FD6B490860BDE8FE8F2DE9F04704461C
:103F40000025002600216148006808F02DFF02D8F6
:103F50002046BDE8F087624801686248006808F0C2
:103F600057FF80465D4801685F48006808F050FFD1
:103F70008146214609F07AF80746414609F008F9DA
:103F80000546284606F0A2FC18B9284606F094FC1F
:103F900000B12546504801685248006808F038FFD3
:103FA00080464C4801685048006808F031FF81465F
:103FB00047480168284608F02BFF8246494608F02A
:103FC000C7FC0746414608F0C3FC06464648006861
:103FD00044490860444805603046BAE72DE9FE4F81
:103FE00006460C4600270025002002902146304658
:103FF00008F022FD074639462A4808F01DFD804694
:1040000007F000FE05462946284608F001FF8346D2
:10401000254807F029F94FF08041019008F0F8FE9B
:104020008246294608F0F4FE81464FF07E5108F0A2
:104030008FFC8046594608F08BFC02902B480460A8
:104040000021006808F0B0FF78D22946284608F021
:10405000DFFE8046029908F0EFFC2549086008461B
:1040600001684FF0804008F0D3FE224908602048E4
:104070000068214908602946284608F0C9FE8246A2
:104080004FF07E5109F084F881464FF0804108F0EE
:10409000BFFE8046029908F0CFFC18490860294607
:1040A00028462DE0DA0F4940DA0F493FE8000020AA
:1040B000F4000020F8000020FC000020EC000020AC
:1040C000F000002004010020000100200801002071
:1040D00014010020180100201C0100200C01002008
:1040E00010010020240100202001002028010020D0
:1040F00034010020380100203C0100202C01002068
:1041000008F086FE0190FE4807F0AEF84FF08041BF
:10411000009008F07DFE8346294608F079FE82462D
:104120004FF07E5108F0A2FF8146019908F010FC83
:104130008046029908F080FCF2490860BDE8FE8FD5
:104140002DE9F0470446002500260021EE480068CE
:1041500008F02AFE02D82046BDE8F087E948016849
:10416000EA48006808F054FE8046E9480168E948DA
:10417000006808F04DFE8146214608F077FF0746AB
:10418000414609F005F80546284606F09FFB18B998
:10419000284606F091FB00B12546DF480168DB4860
:1041A000006808F035FE8046DC480168D9480068A0
:1041B00008F02EFE8146DA480168284608F028FEFD
:1041C0008246494608F0C4FB0746414608F0C0FB5A
:1041D0000646D0480068CD490860CE4805603046A4
:1041E000BAE72DE9FE4F06460C46002700250020C1
:1041F00002902146304608F01FFC07463946C94860
:1042000008F01AFC804607F0FDFC054629462846C2
:1042100008F0FEFD8346BA4807F026F84FF08041CB
:10422000019008F0F5FD8246294608F0F1FD81462F
:104230004FF07E5108F08CFB8046594608F088FB11
:104240000290B94804600021006808F0ADFE49D230
:104250002946284608F0DCFD8046029908F0ECFB70
:10426000B2490860084601684FF0804008F0D0FD70
:10427000AF490860AD480068AE4908602946284645
:1042800008F0C6FD82464FF07E5108F081FF81465E
:104290004FF0804108F0BCFD8046029908F0CCFB4D
:1042A000A54908602946284608F0B2FD01909448C7
:1042B00006F0DAFF4FF08041009008F0A9FD834638
:1042C000294608F0A5FD82464FF07E5108F0CEFE4B
:1042D0008146019908F03CFB8046029908F0ACFB4E
:1042E00096490860BDE8FE8F2DE9F0470446002599
:1042F000002600218C48006808F056FD02D82046B0
:10430000BDE8F0878D4801688D48006808F080FDA1
:104310008046894801688B48006808F079FD81462D
:10432000214608F0A3FE0746414608F031FF054646
:10433000284606F0CBFA18B9284606F0BDFA00B1B7
:1043400025467C4801687E48006808F061FD80468B
:10435000774801687B48006808F05AFD8146734839
:104360000168284608F054FD8246494608F0F0FAF4
:104370000746414608F0ECFA064672480068704964
:104380000860704805603046BAE72DE9FE4F0646E2
:104390000C4600270025002002902146304608F0F8
:1043A0004BFB074639465F4808F046FB804607F05E
:1043B00029FC05462946284608F02AFD8346504830
:1043C00006F052FF4FF08041019008F021FD824637
:1043D000294608F01DFD81464FF07E5108F0B8FADD
:1043E0008046594608F0B4FA02905748046000210C
:1043F000006808F0D9FD49D22946284608F008FD92
:104400008046029908F018FB504908600846016888
:104410004FF0804008F0FCFC4D4908604B480068B4
:104420004C4908602946284608F0F2FC82464FF0C5
:104430007E5108F0ADFE81464FF0804108F0E8FC67
:104440008046029908F0F8FA434908602946284650
:1044500008F0DEFC01902A4806F006FF4FF080418C
:10446000009008F0D5FC8346294608F0D1FC82462E
:104470004FF07E5108F0FAFD8146019908F068FA84
:104480008046029908F0D8FA34490860BDE8FE8FEA
:104490002DE9F04704460025002600212A4800683F
:1044A00008F082FC02D82046BDE8F0872B4801685E
:1044B0002B48006808F0ACFC804627480168294872
:1044C000006808F0A5FC8146214608F0CFFD0746AC
:1044D000414608F05DFE0546284606F0F7F918B992
:1044E000284606F0E9F900B125461A4801681C483B
:1044F000006808F08DFC804615480168194833E0D3
:10450000DA0F493F3001002028010020440100203B
:104510002C010020400100203C0100203801002037
:1045200034010020DA0F49404801002054010020E6
:10453000580100205C0100204C01002050010020A7
:104540006401002060010020680100207401002047
:10455000780100207C0100206C0100207001002007
:104560008401002080010020006808F051FC814691
:1045700074480168284608F04BFC8246494608F01A
:10458000E7F90746414608F0E3F906466E48006839
:104590006E4908606C480560304685E72DE9FE4F9E
:1045A00006460C4600270025002002902146304692
:1045B00008F042FA07463946654808F03DFA804659
:1045C00007F020FB05462946284608F021FC8346D3
:1045D000604806F049FE4FF08041019008F018FC59
:1045E0008246294608F014FC81464FF07E5108F0BF
:1045F000AFF98046594608F0ABF90290564804607E
:104600000021006808F0D0FC49D22946284608F06D
:10461000FFFB8046029908F00FFA504908600846EF
:1046200001684FF0804008F0F3FB4D4908604B48AB
:1046300000684C4908602946284608F0E9FB824694
:104640004FF07E5108F0A4FD81464FF0804108F004
:10465000DFFB8046029908F0EFF9434908602946DC
:10466000284608F0D5FB01903A4806F0FDFD4FF0D2
:104670008041009008F0CCFB8346294608F0C8FB37
:1046800082464FF07E5108F0F1FC8146019908F016
:104690005FF98046029908F0CFF934490860BDE817
:1046A000FE8F2DE9F04704460025002600212A4808
:1046B000006808F079FB02D82046BDE8F0872B4857
:1046C00001682B48006808F0A3FB80462648016873
:1046D0002848006808F09CFB8146214608F0C6FC8B
:1046E0000746414608F054FD0546284606F0EEF818
:1046F00018B9284606F0E0F800B1254619480168C7
:104700001B48006808F084FB80461548016819487A
:10471000006808F07DFB814610480168284608F0D3
:1047200077FB8246494608F013F90746414608F0F0
:104730000FF906460F4800680D4908600D480560EE
:104740003046BAE774010020800100208401002077
:10475000DA0F4940DA0F493F880100209401002018
:10476000980100209C0100208C0100209001002075
:10477000A4010020A001002010B50222B749B848CA
:10478000FCF76EFDB549086808F04CFA00B2012844
:1047900000D110BD0020FCE710B50222AF49B0489F
:1047A000FCF76FFD10BD10B528246200AB49AC4882
:1047B000FCF756FD10BD10B528246200A749A84893
:1047C000FCF75FFD10BD10B5002400BF48E0A34812
:1047D000001D50F82400A34941F824009F481C30D4
:1047E00050F82400A04941F824009C48343050F887
:1047F00024009E4941F824009848103050F82400C5
:104800009B4941F824009548283050F824009949E4
:1048100041F824009148403050F82400964941F86E
:1048200024008E484C3050F82400944941F824006C
:104830008A48583050F82400914941F824008748AC
:10484000643050F824108F4840F8241083487030AA
:1048500050F824108B480C3040F82410601CC4B26F
:10486000032CB4DB00240FE07C49883151F824008C
:1048700008F01EFA844908550846025D214683A0C7
:1048800004F08CFE601CC4B2052CEDDB7349D1F83A
:104890009C0008F00DFA8349087010BD70B5002423
:1048A00000BF51E06F4850F824106C48001D40F8DC
:1048B00024106D4850F8245050F8241067481C30DC
:1048C00040F82410684850F8241064481C3040F820
:1048D0002410664850F824106048343040F8241002
:1048E000634850F824105D48103040F824106148A7
:1048F00050F824105948283040F824105E4850F8E9
:1049000024105648403040F824105C4850F82410D9
:1049100052484C3040F82410594850F824104F4861
:10492000583040F82410574850F824104B48643051
:1049300040F8241053480C3050F824104748703089
:1049400040F82410601CC4B2032CABDB002409E047
:104950004D49085D08F014FA4049883141F82400B7
:10496000601CC4B2052CF3DB4E48007808F008FA4E
:104970003A49C1F89C0070BD4B483A490860002094
:1049800048608860494848624948394908604FF0A2
:104990007C504860474888604448486242483249F1
:1049A00008600020486088604048486240483149BB
:1049B00008604FF07C5048603E4888603B48486241
:1049C0004FF07E50294908603B48486000208860CD
:1049D0003A48294908600020486088604FF07E50BE
:1049E00026490860002048608860354824490860EE
:1049F00034484860002088603348224914394861AF
:104A000032492048143881613149C16131481D491A
:104A10001439086230491B48143841620021816210
:104A2000704710B5FFF7A8FE20B1FFF7BCFEFFF7F7
:104A3000CAFE0CE029A004F0B1FDFFF79DFFFFF7CF
:104A40002DFF4FF07E5005490860FFF7B4FE10BD02
:104A500010B5FFF723FFFFF7AEFE10BD680C002076
:104A600000FC0008840D0020E40D0020440E00200E
:104A7000B40D0020140E0020740E0020A40E00209F
:104A8000D40E0020800B00202000002052585F41EF
:104A90004444524553535B25645D3A307825780D84
:104AA0000A000000BF0200200000604000009643A2
:104AB0003333333F8FC2F53CCDCC4C3E0000A04198
:104AC000CDCCCC3D0AD7A33CD4F025BECB00983D3D
:104AD0000139463F82C179BD42D91ABD6C6F61640C
:104AE00020706172616D732066726F6D20656570F4
:104AF000726F6D206661696C65642C7365742064E7
:104B0000656661756C742076616C75650D0A0000D0
:104B10002DE9FF4104464FF07F5000904FF07C514B
:104B2000204608F075F90290019401980390FE491F
:104B30000398A1EB6000039003980190DDE9011058
:104B400008F066F90746019908F062F906460099EF
:104B500008F08CFA0546019908F05AF9019001987D
:104B600004B0BDE8F0812DE9FF4F8DB00D4614462D
:104B70001E4684F0004B584607F0BEFE85F0004B01
:104B8000CDE90001584607F0B7FE0746DDE90023EE
:104B900006F07CF9CDE9020107F004F90C9084F0ED
:104BA000004B584607F0A8FECDE902010D9807F02A
:104BB000A3FECDE90001DDE9022306F067F907460F
:104BC00007F0F0F80B900C9806F04EFB81460C981D
:104BD00006F018FF82460B9806F046FB0A900B98E9
:104BE00006F010FF099049461B9808F011F983461A
:104BF000099908F00DF9074651461A9808F008F986
:104C00000290099908F004F9834630460A9908F0A1
:104C1000FFF85946039007F09BFE8046394607F09F
:104C200097FE089051461B9808F0F2F8074649464F
:104C30001A9808F0EDF88046394608F0A9FA07906E
:104C4000079880F000473846089906F0DFF906908B
:104C50004FF07C510C9808F0DBF8074606F004FB97
:104C600081464FF07C510C9808F0D2F8074606F0C8
:104C7000C9FE82464FF07C510B9808F0C9F80746F0
:104C800006F0F2FA0A904FF07C510B9808F0C0F849
:104C9000074606F0B7FE09904FF07C51069808F0E1
:104CA000B7F8074606F0E0FA05904FF07C510698F9
:104CB00008F0AEF8074606F0A5FE049050460999A4
:104CC00008F0A6F88346049908F0A2F8074648467B
:104CD0000A9908F09DF88346059908F099F88046EE
:104CE000394607F035FE914908604846099908F0B1
:104CF0008FF88346049908F08BF8074650460A99C6
:104D000008F086F88346059908F082F8804639460F
:104D100008F03EFA8649086050460A9908F078F88B
:104D20008346049908F074F807464846099908F044
:104D30006FF88346059908F06BF88046394607F00E
:104D400007FE7C4908605046099908F061F88346DF
:104D5000059908F05DF8074648460A9908F058F8A2
:104D60008346049908F054F88046394608F010FA52
:104D7000714908606D480168006808F049F86F499A
:104D800008606B4801686948006808F041F86C49A0
:104D90000860684801686548006808F039F86949A2
:104DA0000860654801686148006808F031F86649A4
:104DB00008605F480168006808F02AF863490860E5
:104DC0005C4801685A48006808F022F860490860A9
:104DD000594801685648006808F01AF85D490860AB
:104DE00054480168006808F013F85B4908605248AD
:104DF00001685048006808F00BF8584908604E48B0
:104E00000168006808F004F85549086011B0BDE871
:104E1000F08F0FB595B0002012901190109051486E
:104E2000007858B9DDE91D01CDE900011AA90EC9C4
:104E30001898FFF798FE01204A49087000211C9835
:104E400007F0BCFE09D100211D9807F0B7FE04D180
:104E500000211E9807F0B2FE64D01E99084607F0A4
:104E6000D7FF06901D99084607F0D2FF04901C99C1
:104E7000084607F0CDFF0390049907F069FD0590FF
:104E8000069907F065FD0790FFF742FE139013990E
:104E90001C9807F0BDFF1C9013991D9807F0B8FFF0
:104EA0001D9013991E9807F0B3FF1E9025480168C6
:104EB0002848006807F04CFD04901E9907F0A8FFF1
:104EC0000690214801682248006808F061F90290C4
:104ED0001D9907F09DFF04901F4801684FF07C501A
:104EE00008F056F901901E480168019808F050F941
:104EF00002901C9907F08CFF0390049907F028FD9D
:104F00000590069907F024FD4FF08041079007F0C7
:104F10007FFF0F900A4801681048006808F038F9D0
:104F2000049021E03AE10000865A375FAC0100208E
:104F3000B0010020B4010020B8010020CC01002005
:104F4000D0010020D4010020D8010020DC01002085
:104F5000E0010020E4010020E8010020EC01002035
:104F6000F0010020F40100201E9907F051FF069087
:104F7000FE4801684FF07C5008F00AF90190FC48A7
:104F80000168019808F004F902901D9907F040FFAC
:104F90000490F8480168F848006807F0D9FC0290CE
:104FA0001C9907F035FF0390049907F0D1FC059098
:104FB000069907F0CDFC4FF08041079007F028FFDD
:104FC0000E90EA4801684FF07C5008F0E1F8039039
:104FD000EA480168039808F0DBF805904FF080403C
:104FE0001E9907F015FF0490059907F011FF07902F
:104FF000E3480168E348006807F0AAFC03904FF01B
:1050000080401D9907F004FF0290039907F000FF0C
:105010000590DD480168DD48006808F0B9F80390A4
:105020004FF080401C9907F0F3FE0290039907F0BF
:10503000EFFE0490059907F08BFC0690079907F0A6
:1050400087FC0D900E99084607F0E2FE02900F993A
:10505000084607F0DDFE0190029907F079FC039005
:1050600007F04AFCCDE9040106F090FDCDE9060108
:1050700006F098FE0C900D980B90C3480168C34849
:10508000006808F085F805900B9907F0C1FE0790BD
:10509000BA4801684FF07C5008F07AF80490B448A0
:1050A0000168049808F074F805900C9907F0B0FEB8
:1050B0000690079907F04CFC0A90B2480168B04886
:1050C000006807F045FC05900B9907F0A1FE0790DA
:1050D000A8480168A848006808F05AF805900C999B
:1050E00007F096FE0690079907F032FC09909F485A
:1050F00001684FF07C5008F04BF804909F4801681D
:10510000049808F045F805900B9907F081FE079088
:105110009E4801689C48006807F01AFC05900C99AD
:1051200007F076FE0690079907F012FC089009999F
:105130001E9807F06DFE069008991D9807F068FE0E
:105140000590069908F024F80790129907F000FCE2
:10515000129008991C9807F05BFE06900A991E9819
:1051600007F056FE0590069908F012F8079011997D
:1051700007F0EEFB11900A991D9807F049FE069082
:1051800009991C9807F044FE0590069908F000F86C
:105190000790109907F0DCFB109000BF00211898D1
:1051A00007F00CFD09D100211A9807F007FD04D182
:1051B00000211B9807F002FD7AD01B99084607F0E2
:1051C00027FE0B901A99084607F022FE09901899BD
:1051D000084607F01DFE0890099907F0B9FB0A90F0
:1051E0000B9907F0B5FB0C90FFF792FC1390139905
:1051F000189807F00DFE189013991A9807F008FEFA
:105200001A9013991B9807F003FE1B905E480168E3
:105210005E48006807F0BCFF0F905A480168584884
:10522000006807F095FB0E904FF07C5158480068DD
:1052300007F0AEFF0C904E4801680C9807F088FB11
:105240000D900E991B9807F0E3FD0B900D991A989D
:1052500007F0DEFD0A900B9907F09AFF0C90129967
:1052600007F076FB12900D99189807F0D1FD0B907E
:105270000F991B9807F0CCFD0A900B9907F088FF57
:105280000C90119907F064FB11900F991A9807F090
:10529000BFFD0B900E99189807F0BAFD0A900B9974
:1052A00007F076FF0C90109907F052FB109000BFAA
:1052B0000021129807F082FC6ED00021119807F0AF
:1052C0007DFCF9D00021109807F078FCF4D0002183
:1052D000209807F069FE66D21299209807F098FD91
:1052E0000E90219907F094FD0F902A48006801461E
:1052F0000E900F9807F02CFB264908601199209812
:1053000007F086FD0E90219907F082FD0F9021484D
:10531000406801460E900F9807F01AFB1D4948603F
:105320001099209807F074FD0E90219907F070FDF8
:105330000F901848806801460E900F9807F008FB00
:10534000144988600846006801460F90159807F0D8
:10535000FFFA15900F48406801460F90169807F025
:10536000F7FA16900B488068014616E0DC01002031
:10537000F0010020D8010020E0010020E801002019
:10538000D0010020EC010020D4010020E401002025
:10539000CC010020080D002025E00F90179807F0A1
:1053A000D7FA179004E00020FA4908604860886046
:1053B00012991F9807F02CFD0F90159907F0C8FA65
:1053C000159011991F9807F023FD0F90169907F07B
:1053D000BFFA169010991F9807F01AFD0F901799B1
:1053E00007F0B6FA1790EC481799006807F010FD1F
:1053F0000E90EA481699006807F00AFD0C90E848FC
:10540000006880F000400A90159907F001FD0B90AC
:105410000C9907F0BDFE0D900E9907F0B9FE4FF004
:105420007C510F9007F0F4FCDE490860DA481699C9
:10543000006807F0EDFC0E90D8481799006807F057
:10544000E7FC0C90D8480168159807F0E1FC0B9038
:105450000C9907F07DFA0D900E9907F099FE4FF028
:105460007C510F9007F0D4FCD0490860CA4801680D
:10547000159807F0CDFC0E90C9481799006807F001
:10548000C7FC0C90C8481699006807F0C1FC0B9047
:105490000C9907F07DFE0D900E9907F059FA4FF028
:1054A0007C510F9007F0B4FCC1490860BB4801680B
:1054B000159807F0ADFC0E90B9481699006807F0F2
:1054C000A7FC0C90B8481799006807F0A1FC0B9056
:1054D0000C9907F03DFA0D900E9907F059FE4FF028
:1054E0007C510F9007F094FCB2490860AD48016808
:1054F000219807F08DFC0F90AB4801680F9807F0DA
:1055000027FAA9490860A9480168219807F080FC9A
:105510000F90A34801680F9807F01AFAA049086095
:10552000A3480168219807F073FC0F909B4801681D
:105530000F9807F00DFA994908609E480168219874
:1055400007F066FC0F90944801680F9807F000FA86
:105550009149086008460168006807F059FC0E9000
:105560008E480168006807F053FC0C908C48016875
:10557000006807F04DFC0A908B480168006807F04E
:1055800047FC09900A9907F0E3F90B900C9907F092
:10559000DFF90D900E9907F0DBF90F90FFF7B8FADD
:1055A000139081481399006807F032FC7E49086027
:1055B0007B481399006807F02BFC7949086077480D
:1055C0001399006807F024FC744908607248139925
:1055D000006807F01DFC70490860734801680068A6
:1055E00007F016FC744908606D4801686E48006851
:1055F00007F00EFC71490860684801686A48006855
:1056000007F006FC6E490860634801686648006858
:1056100007F0FEFB6B49086061480168006807F00D
:10562000F7FB694908605D4801685D48006807F05C
:10563000EFFB66490860584801685948006807F060
:10564000E7FB6349086055480168006807F0E0FB24
:1056500060490860504801685048006807F0D8FB6E
:105660005D4908604C480168006807F0D1FB5B4960
:10567000086019B000BD2DE9F0439DB0584E0020E0
:105680001A901B901C902422564911A804F0EEF8A1
:1056900000200E900F9010900B900C900D900890A1
:1056A00009900A90FDF7EFFF05464F48006848B1A2
:1056B0004D490968681A07F063FB07464B4907F034
:1056C000BBF900E00020064647480560FEF7B3F846
:1056D0004748407800285BD14648006808B94548EB
:1056E0000560454AD168454A106807F031F94349D9
:1056F0000860414A1169414A506807F029F93F4959
:1057000048603D4A51693D4A906807F021F93B499C
:1057100088603B480088401C39490880354800684B
:1057200038490844854230D93548008807F028FBBD
:10573000074632490868394607F07EF92C49086265
:105740002F48008807F01CFB07462C49486839465B
:1057500007F072F9264948622948008807F010FBD3
:10576000074626498868394607F066F92049886265
:105770000020234908802149086048608860012092
:105780001B49487000201B4908601DB0BDE8F0832C
:105790003AE00000080D0020B8010020B40100200C
:1057A000B0010020BC010020AC010020C00100209D
:1057B000C4010020C8010020CC010020D00100203D
:1057C000D4010020D8010020DC010020E0010020ED
:1057D000E4010020E8010020EC010020F00100209D
:1057E0000AD7233CBCD30008F801002000247449E8
:1057F0006C0B0020FC010020200D0020140D002067
:1058000000020020C0C62D00A54A116A506C07F0A6
:10581000BFFC0B90A24A516A906C07F0B9FC0C9047
:105820009F4A916AD06C07F0B3FC0D909C48C06A07
:1058300080F000400E909A48006B80F000400F907E
:105840009748406B80F000401090109880F000471F
:105850000F9880F000480E9880F0004991494FF071
:105860007E520A98CDE90616CDE90402DDE908105A
:10587000CDE90087CDE902104B460BA807C8FFF71A
:10588000C8FA894801688948006807F061F88046CD
:1058900087480168404607F07BFC07468548016859
:1058A000384607F075FC119083480168834800680A
:1058B00007F0AEFA8046824801688248006807F027
:1058C000A7FA8146414607F043F807464FF080416A
:1058D00007F09EFA12907A4801687848006807F04D
:1058E00097FA8046744801687648006807F090FA95
:1058F0008146414607F04CFC07464FF0804107F0D7
:1059000087FA13906C4801686C48006807F080FAC9
:1059100080466B4801686B48006807F079FA814659
:10592000414607F035FC07464FF0804107F070FA1A
:1059300014905D4801685D48006807F029FC8046C6
:105940005B480168404607F003F80746594801687C
:10595000384607F01DFC15905A4801685748006802
:1059600007F056FA8046544801685548006807F029
:105970004FFA8146414606F0EBFF07464FF0804163
:1059800007F046FA16904E4801684C48006807F048
:105990003FFA8046484801684A48006807F038FAEC
:1059A0008146414606F0D4FF07464FF0804107F09C
:1059B0002FFA1790434801684048006807F028FA1A
:1059C00080463D4801683E48006807F021FA81465C
:1059D000414607F0DDFB07464FF0804107F018FA1B
:1059E0001890314801683148006807F0D1FB8046C3
:1059F0002F480168404607F0CBFB07462D48016859
:105A0000384606F0A5FF19901999169805F0FEFA88
:105A10001A90139805F098F880F000401B90DDE98B
:105A2000111005F0F3FA1C90002408E011A850F8BA
:105A300024101B48503040F82410601CC4B2092CBC
:105A4000F4DB17491A98C1F890001B98C1F894002C
:105A50001C98C1F898001C491A9807F0D9F9074614
:105A60001A4906F0E9FF0E49C1F8840016491B984F
:105A700007F0CEF90746154906F0DEFF0849C1F8E0
:105A8000880011491C9807F0C3F907460F4906F032
:105A9000D3FF0349C1F88C0000BF1DB0BDE8F083FF
:105AA0006C0B0020CDCC4C3DDC010020CC01002053
:105AB000E8010020F0010020B8010020AC01002026
:105AC000B4010020B001002000003443DA0F494047
:105AD00070B500244F49D1F8880006F00DFF21F081
